{
  "contractName": "ItemRegistry",
  "abi": [
    {
      "constant": false,
      "inputs": [
        {
          "name": "_owner",
          "type": "address"
        }
      ],
      "name": "setOwner",
      "outputs": [],
      "payable": false,
      "stateMutability": "nonpayable",
      "type": "function"
    },
    {
      "constant": true,
      "inputs": [
        {
          "name": "_itemId",
          "type": "uint256"
        }
      ],
      "name": "allOf",
      "outputs": [
        {
          "name": "_owner",
          "type": "address"
        },
        {
          "name": "_startingPrice",
          "type": "uint256"
        },
        {
          "name": "_price",
          "type": "uint256"
        },
        {
          "name": "_class",
          "type": "uint8"
        },
        {
          "name": "_nextPrice",
          "type": "uint256"
        }
      ],
      "payable": false,
      "stateMutability": "view",
      "type": "function"
    },
    {
      "constant": true,
      "inputs": [],
      "name": "numberOfItemsForSale",
      "outputs": [
        {
          "name": "_n",
          "type": "uint256"
        }
      ],
      "payable": false,
      "stateMutability": "view",
      "type": "function"
    },
    {
      "constant": true,
      "inputs": [
        {
          "name": "_itemId",
          "type": "uint256"
        }
      ],
      "name": "classOf",
      "outputs": [
        {
          "name": "_class",
          "type": "uint8"
        }
      ],
      "payable": false,
      "stateMutability": "view",
      "type": "function"
    },
    {
      "constant": false,
      "inputs": [
        {
          "name": "_itemIds",
          "type": "uint256[]"
        },
        {
          "name": "_price",
          "type": "uint256"
        },
        {
          "name": "_class",
          "type": "uint8"
        }
      ],
      "name": "listMultipleItems",
      "outputs": [],
      "payable": false,
      "stateMutability": "nonpayable",
      "type": "function"
    },
    {
      "constant": true,
      "inputs": [
        {
          "name": "_from",
          "type": "uint256"
        },
        {
          "name": "_take",
          "type": "uint256"
        }
      ],
      "name": "itemsForSaleLimit",
      "outputs": [
        {
          "name": "_items",
          "type": "uint256[]"
        }
      ],
      "payable": false,
      "stateMutability": "view",
      "type": "function"
    },
    {
      "constant": true,
      "inputs": [
        {
          "name": "_itemId",
          "type": "uint256"
        }
      ],
      "name": "nextPriceOf",
      "outputs": [
        {
          "name": "_nextPrice",
          "type": "uint256"
        }
      ],
      "payable": false,
      "stateMutability": "view",
      "type": "function"
    },
    {
      "constant": true,
      "inputs": [
        {
          "name": "_itemId",
          "type": "uint256"
        }
      ],
      "name": "ownerOf",
      "outputs": [
        {
          "name": "_owner",
          "type": "address"
        }
      ],
      "payable": false,
      "stateMutability": "view",
      "type": "function"
    },
    {
      "constant": true,
      "inputs": [
        {
          "name": "_owner",
          "type": "address"
        }
      ],
      "name": "balanceOf",
      "outputs": [
        {
          "name": "_balance",
          "type": "uint256"
        }
      ],
      "payable": false,
      "stateMutability": "view",
      "type": "function"
    },
    {
      "constant": false,
      "inputs": [],
      "name": "withdrawAll",
      "outputs": [],
      "payable": false,
      "stateMutability": "nonpayable",
      "type": "function"
    },
    {
      "constant": true,
      "inputs": [],
      "name": "owner",
      "outputs": [
        {
          "name": "",
          "type": "address"
        }
      ],
      "payable": false,
      "stateMutability": "view",
      "type": "function"
    },
    {
      "constant": true,
      "inputs": [
        {
          "name": "_owner",
          "type": "address"
        }
      ],
      "name": "itemsOfOwner",
      "outputs": [
        {
          "name": "_items",
          "type": "uint256[]"
        }
      ],
      "payable": false,
      "stateMutability": "view",
      "type": "function"
    },
    {
      "constant": true,
      "inputs": [
        {
          "name": "_itemId",
          "type": "uint256"
        }
      ],
      "name": "startingPriceOf",
      "outputs": [
        {
          "name": "_startingPrice",
          "type": "uint256"
        }
      ],
      "payable": false,
      "stateMutability": "view",
      "type": "function"
    },
    {
      "constant": false,
      "inputs": [
        {
          "name": "_amount",
          "type": "uint256"
        },
        {
          "name": "_to",
          "type": "address"
        }
      ],
      "name": "withdrawAmountTo",
      "outputs": [],
      "payable": false,
      "stateMutability": "nonpayable",
      "type": "function"
    },
    {
      "constant": true,
      "inputs": [
        {
          "name": "_itemId",
          "type": "uint256"
        }
      ],
      "name": "priceOf",
      "outputs": [
        {
          "name": "_price",
          "type": "uint256"
        }
      ],
      "payable": false,
      "stateMutability": "view",
      "type": "function"
    },
    {
      "constant": false,
      "inputs": [
        {
          "name": "_itemId",
          "type": "uint256"
        },
        {
          "name": "_price",
          "type": "uint256"
        },
        {
          "name": "_class",
          "type": "uint8"
        },
        {
          "name": "_owner",
          "type": "address"
        }
      ],
      "name": "listItem",
      "outputs": [],
      "payable": false,
      "stateMutability": "nonpayable",
      "type": "function"
    },
    {
      "constant": false,
      "inputs": [
        {
          "name": "_itemId",
          "type": "uint256"
        }
      ],
      "name": "buy",
      "outputs": [],
      "payable": true,
      "stateMutability": "payable",
      "type": "function"
    },
    {
      "constant": true,
      "inputs": [],
      "name": "allItemsForSale",
      "outputs": [
        {
          "name": "_items",
          "type": "uint256[]"
        }
      ],
      "payable": false,
      "stateMutability": "view",
      "type": "function"
    },
    {
      "constant": true,
      "inputs": [
        {
          "name": "_currentPrice",
          "type": "uint256"
        },
        {
          "name": "_class",
          "type": "uint8"
        }
      ],
      "name": "calculateNextPrice",
      "outputs": [
        {
          "name": "_newPrice",
          "type": "uint256"
        }
      ],
      "payable": false,
      "stateMutability": "pure",
      "type": "function"
    },
    {
      "inputs": [],
      "payable": false,
      "stateMutability": "nonpayable",
      "type": "constructor"
    },
    {
      "anonymous": false,
      "inputs": [
        {
          "indexed": true,
          "name": "_itemId",
          "type": "uint256"
        },
        {
          "indexed": true,
          "name": "_owner",
          "type": "address"
        },
        {
          "indexed": false,
          "name": "_price",
          "type": "uint256"
        }
      ],
      "name": "Bought",
      "type": "event"
    },
    {
      "anonymous": false,
      "inputs": [
        {
          "indexed": true,
          "name": "_itemId",
          "type": "uint256"
        },
        {
          "indexed": true,
          "name": "_owner",
          "type": "address"
        },
        {
          "indexed": false,
          "name": "_price",
          "type": "uint256"
        }
      ],
      "name": "Sold",
      "type": "event"
    }
  ],
  "bytecode": "0x606060405260056001556064600255341561001957600080fd5b60008054600160a060020a033316600160a060020a0319909116179055610de2806100456000396000f3006060604052600436106101065763ffffffff7c010000000000000000000000000000000000000000000000000000000060003504166313af4035811461010b5780632e4f43bf1461012c5780633a3d12d4146101945780634324aa21146101b95780635191e37f146101f35780635435bac81461021b5780635ba9e48e146102875780636352211e1461029d57806370a08231146102cf578063853828b6146102ee5780638da5cb5b146103015780639a4ca3cb14610314578063af7520b914610333578063b1237eae14610349578063b9186d7d1461036b578063bc358af914610381578063d96a094a146103ac578063f0d07014146103b7578063fa0a8f26146103ca575b600080fd5b341561011657600080fd5b61012a600160a060020a03600435166103e6565b005b341561013757600080fd5b610142600435610430565b6040518086600160a060020a0316600160a060020a0316815260200185815260200184815260200183600381111561017657fe5b60ff1681526020018281526020019550505050505060405180910390f35b341561019f57600080fd5b6101a7610477565b60405190815260200160405180910390f35b34156101c457600080fd5b6101cf60043561047e565b604051808260038111156101df57fe5b60ff16815260200191505060405180910390f35b34156101fe57600080fd5b61012a60246004803582810192910135903560ff60443516610493565b341561022657600080fd5b6102346004356024356104e8565b60405160208082528190810183818151815260200191508051906020019060200280838360005b8381101561027357808201518382015260200161025b565b505050509050019250505060405180910390f35b341561029257600080fd5b6101a760043561056a565b34156102a857600080fd5b6102b360043561058c565b604051600160a060020a03909116815260200160405180910390f35b34156102da57600080fd5b6101a7600160a060020a03600435166105a7565b34156102f957600080fd5b61012a610608565b341561030c57600080fd5b6102b361065e565b341561031f57600080fd5b610234600160a060020a036004351661066d565b341561033e57600080fd5b6101a7600435610730565b341561035457600080fd5b61012a600435600160a060020a0360243516610742565b341561037657600080fd5b6101a7600435610792565b341561038c57600080fd5b61012a60043560243560ff60443516600160a060020a03606435166107a4565b61012a6004356108b5565b34156103c257600080fd5b610234610aeb565b34156103d557600080fd5b6101a760043560ff60243516610b49565b60005433600160a060020a0390811691161461040157600080fd5b6000805473ffffffffffffffffffffffffffffffffffffffff1916600160a060020a0392909216919091179055565b60008060008060006104418661058c565b61044a87610730565b61045388610792565b61045c8961047e565b6104658a61056a565b939a9299509097509550909350915050565b6003545b90565b60009081526007602052604090205460ff1690565b6000805433600160a060020a039081169116146104af57600080fd5b5060005b838110156104e1576104d98585838181106104ca57fe5b905060200201358484336107a4565b6001016104b3565b5050505050565b6104f0610d5d565b6104f8610d5d565b6000836040518059106105085750595b90808252806020026020018201604052509150600090505b83811015610562576003805486830190811061053857fe5b90600052602060002090015482828151811061055057fe5b60209081029091010152600101610520565b509392505050565b600061058661057883610792565b6105818461047e565b610b49565b92915050565b600090815260046020526040902054600160a060020a031690565b600080805b6003548110156106015783600160a060020a03166105e36003838154811015156105d257fe5b90600052602060002090015461058c565b600160a060020a031614156105f9576001909101905b6001016105ac565b5092915050565b60005433600160a060020a0390811691161461062357600080fd5b600054600160a060020a039081169030163180156108fc0290604051600060405180830381858888f19350505050151561065c57600080fd5b565b600054600160a060020a031681565b610675610d5d565b61067d610d5d565b600080610689856105a7565b6040518059106106965750595b9080825280602002602001820160405250925060009150600090505b6003548110156107275784600160a060020a03166106d86003838154811015156105d257fe5b600160a060020a0316141561071f5760038054829081106106f557fe5b90600052602060002090015483838151811061070d57fe5b60209081029091010152600191909101905b6001016106b2565b50909392505050565b60009081526005602052604090205490565b60005433600160a060020a0390811691161461075d57600080fd5b600160a060020a03811682156108fc0283604051600060405180830381858888f19350505050151561078e57600080fd5b5050565b60009081526006602052604090205490565b60005433600160a060020a039081169116146107bf57600080fd5b600083116107cc57600080fd5b600084815260066020526040902054156107e557600080fd5b600084815260046020526040902054600160a060020a03161561080757600080fd5b600382600381111561081557fe5b111561082057600080fd5b6000848152600460209081526040808320805473ffffffffffffffffffffffffffffffffffffffff1916600160a060020a038616179055600682528083208690556005825280832086905560079091529020805483919060ff1916600183600381111561088957fe5b021790555060038054600181016108a08382610d6f565b50600091825260209091200193909355505050565b6000806000806000806108c787610792565b116108d157600080fd5b60006108dc8761058c565b600160a060020a031614156108f057600080fd5b6108f986610792565b34101561090557600080fd5b33600160a060020a03166109188761058c565b600160a060020a0316141561092c57600080fd5b61093533610d0c565b1561093f57600080fd5b6109488661058c565b945033935061095686610792565b6000878152600460205260409020805473ffffffffffffffffffffffffffffffffffffffff1916600160a060020a038716179055925034839003915061099b8661056a565b600660008881526020019081526020016000208190555083600160a060020a0316867fd2728f908c7e0feb83c6278798370fcb86b62f236c9dbf1a3f541096c21590408560405190815260200160405180910390a384600160a060020a0316867f66f5cd880edf48cdde6c966e5da0784fcc4c5e85572b8b3b62c4357798d447d78560405190815260200160405180910390a3600090506000600254118015610a4657506000600154115b15610a7557610a72600254610a6660015486610d1490919063ffffffff16565b9063ffffffff610d4616565b90505b600160a060020a03851681840380156108fc0290604051600060405180830381858888f193505050501515610aa957600080fd5b6000821115610ae357600160a060020a03841682156108fc0283604051600060405180830381858888f193505050501515610ae357600080fd5b505050505050565b610af3610d5d565b6003805480602002602001604051908101604052809291908181526020018280548015610b3f57602002820191906000526020600020905b815481526020019060010190808311610b2b575b5050505050905090565b600080826003811115610b5857fe5b1415610bbf5766b1a2bc2ec500008311610b8457610b7d83600263ffffffff610d1416565b9050610586565b6706f05b59d3b200008311610ba957610b7d6064610a6685607563ffffffff610d1416565b610b7d6064610a6685607063ffffffff610d1416565b6001826003811115610bcd57fe5b1415610c2e5767016345785d8a00008311610bf357610b7d83600263ffffffff610d1416565b6706f05b59d3b200008311610c1857610b7d6064610a6685607663ffffffff610d1416565b610b7d6064610a6685607163ffffffff610d1416565b6002826003811115610c3c57fe5b1415610c9d57670214e8348c4f00008311610c6257610b7d83600263ffffffff610d1416565b6706f05b59d3b200008311610c8757610b7d6064610a6685607763ffffffff610d1416565b610b7d6064610a6685607263ffffffff610d1416565b6003826003811115610cab57fe5b1415610586576702c68af0bb1400008311610cd157610b7d83600263ffffffff610d1416565b6706f05b59d3b200008311610cf657610b7d6064610a6685607863ffffffff610d1416565b610b7d6064610a6685607363ffffffff610d1416565b6000903b1190565b600080831515610d275760009150610601565b50828202828482811515610d3757fe5b0414610d3f57fe5b9392505050565b6000808284811515610d5457fe5b04949350505050565b60206040519081016040526000815290565b815481835581811511610d9357600083815260209020610d93918101908301610d98565b505050565b61047b91905b80821115610db25760008155600101610d9e565b50905600a165627a7a72305820f4242034f7f798d65d301cd7b8f59333e14af2f0afdb4e67ed8fca00e49cf7000029",
  "source": "pragma solidity ^0.4.13;\r\n\r\ncontract ItemRegistry {\r\n  using SafeMath for uint256;\r\n\r\n  enum ItemClass {TIER1, TIER2, TIER3, TIER4}\r\n\r\n  event Bought (uint256 indexed _itemId, address indexed _owner, uint256 _price);\r\n  event Sold (uint256 indexed _itemId, address indexed _owner, uint256 _price);\r\n\r\n  address public owner;\r\n  uint256 cutNumerator = 5;\r\n  uint256 cutDenominator = 100;\r\n\r\n  uint256[] private listedItems;\r\n  mapping (uint256 => address) private ownerOfItem;\r\n  mapping (uint256 => uint256) private startingPriceOfItem;\r\n  mapping (uint256 => uint256) private priceOfItem;\r\n  mapping (uint256 => ItemClass) private classOfItem;\r\n\r\n  function ItemRegistry () public {\r\n    owner = msg.sender;\r\n  }\r\n\r\n  /* Modifiers */\r\n  modifier onlyOwner() {\r\n    require(owner == msg.sender);\r\n    _;\r\n  }\r\n\r\n  /* Admin */\r\n  function setOwner (address _owner) onlyOwner() public {\r\n    owner = _owner;\r\n  }\r\n\r\n  function withdrawAll () onlyOwner() public {\r\n    owner.transfer(this.balance);\r\n  }\r\n\r\n  function withdrawAmountTo (uint256 _amount, address _to) onlyOwner() public {\r\n    _to.transfer(_amount);\r\n  }\r\n\r\n  function listItem (uint256 _itemId, uint256 _price, ItemClass _class, address _owner) onlyOwner() public {\r\n    require(_price > 0);\r\n    require(priceOfItem[_itemId] == 0);\r\n    require(ownerOfItem[_itemId] == address(0));\r\n    require(_class <= ItemClass.TIER4);\r\n\r\n    ownerOfItem[_itemId] = _owner;\r\n    priceOfItem[_itemId] = _price;\r\n    startingPriceOfItem[_itemId] = _price;\r\n    classOfItem[_itemId] = _class;\r\n    listedItems.push(_itemId);\r\n  }\r\n\r\n  function listMultipleItems (uint256[] _itemIds, uint256 _price, ItemClass _class) onlyOwner() external {\r\n    for (uint256 i = 0; i < _itemIds.length; i++) {\r\n      listItem(_itemIds[i], _price, _class, msg.sender);\r\n    }\r\n  }\r\n\r\n  /* Read */\r\n  function balanceOf (address _owner) public view returns (uint256 _balance) {\r\n    uint256 counter = 0;\r\n\r\n    for (uint256 i = 0; i < listedItems.length; i++) {\r\n      if (ownerOf(listedItems[i]) == _owner) {\r\n        counter++;\r\n      }\r\n    }\r\n\r\n    return counter;\r\n  }\r\n\r\n  function ownerOf (uint256 _itemId) public view returns (address _owner) {\r\n    return ownerOfItem[_itemId];\r\n  }\r\n\r\n  function startingPriceOf (uint256 _itemId) public view returns (uint256 _startingPrice) {\r\n    return startingPriceOfItem[_itemId];\r\n  }\r\n\r\n  function priceOf (uint256 _itemId) public view returns (uint256 _price) {\r\n    return priceOfItem[_itemId];\r\n  }\r\n\r\n  function classOf (uint256 _itemId) public view returns (ItemClass _class) {\r\n    return classOfItem[_itemId];\r\n  }\r\n\r\n  function nextPriceOf (uint256 _itemId) public view returns (uint256 _nextPrice) {\r\n    return calculateNextPrice(priceOf(_itemId), classOf(_itemId));\r\n  }\r\n\r\n  function allOf (uint256 _itemId) external view returns (address _owner, uint256 _startingPrice, uint256 _price, ItemClass _class, uint256 _nextPrice) {\r\n    return (ownerOf(_itemId), startingPriceOf(_itemId), priceOf(_itemId), classOf(_itemId), nextPriceOf(_itemId));\r\n  }\r\n\r\n  function itemsOfOwner (address _owner) public view returns (uint256[] _items) {\r\n    uint256[] memory items = new uint256[](balanceOf(_owner));\r\n\r\n    uint256 itemCounter = 0;\r\n    for (uint256 i = 0; i < listedItems.length; i++) {\r\n      if (ownerOf(listedItems[i]) == _owner) {\r\n        items[itemCounter] = listedItems[i];\r\n        itemCounter += 1;\r\n      }\r\n    }\r\n\r\n    return items;\r\n  }\r\n\r\n  function numberOfItemsForSale () public view returns (uint256 _n) {\r\n    return listedItems.length;\r\n  }\r\n\r\n  function itemsForSaleLimit (uint256 _from, uint256 _take) public view returns (uint256[] _items) {\r\n    uint256[] memory items = new uint256[](_take);\r\n\r\n    for (uint256 i = 0; i < _take; i++) {\r\n      items[i] = listedItems[_from + i];\r\n    }\r\n\r\n    return items;\r\n  }\r\n\r\n  function allItemsForSale () public view returns (uint256[] _items) {\r\n    return listedItems;\r\n  }\r\n\r\n  /* Next price */\r\n  function calculateNextPrice (uint256 _currentPrice, ItemClass _class) public pure returns (uint256 _newPrice) {\r\n    if (_class == ItemClass.TIER1) {\r\n      if (_currentPrice <= 0.05 ether) {\r\n        return _currentPrice.mul(2); // 2\r\n      } else if (_currentPrice <= 0.5 ether) {\r\n        return _currentPrice.mul(117).div(100); // 1.17\r\n      } else {\r\n        return _currentPrice.mul(112).div(100); // 1.12\r\n      }\r\n    }\r\n\r\n    if (_class == ItemClass.TIER2) {\r\n      if (_currentPrice <= 0.1 ether) {\r\n        return _currentPrice.mul(2); // 2\r\n      } else if (_currentPrice <= 0.5 ether) {\r\n        return _currentPrice.mul(118).div(100); // 1.18\r\n      } else {\r\n        return _currentPrice.mul(113).div(100); // 1.13\r\n      }\r\n    }\r\n\r\n    if (_class == ItemClass.TIER3) {\r\n      if (_currentPrice <= 0.15 ether) {\r\n        return _currentPrice.mul(2);  // 2\r\n      } else if (_currentPrice <= 0.5 ether) {\r\n        return _currentPrice.mul(119).div(100); // 1.19\r\n      } else {\r\n        return _currentPrice.mul(114).div(100); // 1.14\r\n      }\r\n    }\r\n\r\n    if (_class == ItemClass.TIER4) {\r\n      if (_currentPrice <= 0.2 ether) {\r\n        return _currentPrice.mul(2); // 2\r\n      } else if (_currentPrice <= 0.5 ether) {\r\n        return _currentPrice.mul(120).div(100); // 1.2\r\n      } else {\r\n        return  _currentPrice.mul(115).div(100); // 1.15\r\n      }\r\n    }\r\n  }\r\n\r\n  /* Buy */\r\n  function buy (uint256 _itemId) payable public {\r\n    require(priceOf(_itemId) > 0);\r\n    require(ownerOf(_itemId) != address(0));\r\n    require(msg.value >= priceOf(_itemId));\r\n    require(ownerOf(_itemId) != msg.sender);\r\n    require(!isContract(msg.sender));\r\n\r\n    address oldOwner = ownerOf(_itemId);\r\n    address newOwner = msg.sender;\r\n    uint256 price = priceOf(_itemId);\r\n    uint256 excess = msg.value - price;\r\n\r\n    ownerOfItem[_itemId] = newOwner;\r\n    priceOfItem[_itemId] = nextPriceOf(_itemId);\r\n\r\n    Bought(_itemId, newOwner, price);\r\n    Sold(_itemId, oldOwner, price);\r\n\r\n    uint256 cut = 0;\r\n    if (cutDenominator > 0 && cutNumerator > 0) {\r\n      cut = price.mul(cutNumerator).div(cutDenominator);\r\n    }\r\n\r\n    oldOwner.transfer(price - cut);\r\n\r\n    if (excess > 0) {\r\n      newOwner.transfer(excess);\r\n    }\r\n  }\r\n\r\n  /* Util */\r\n  function isContract(address addr) internal view returns (bool) {\r\n    uint size;\r\n    assembly { size := extcodesize(addr) } // solium-disable-line\r\n    return size > 0;\r\n  }\r\n}\r\n\r\nlibrary SafeMath {\r\n\r\n  /**\r\n  * @dev Multiplies two numbers, throws on overflow.\r\n  */\r\n  function mul(uint256 a, uint256 b) internal pure returns (uint256) {\r\n    if (a == 0) {\r\n      return 0;\r\n    }\r\n    uint256 c = a * b;\r\n    assert(c / a == b);\r\n    return c;\r\n  }\r\n\r\n  /**\r\n  * @dev Integer division of two numbers, truncating the quotient.\r\n  */\r\n  function div(uint256 a, uint256 b) internal pure returns (uint256) {\r\n    // assert(b > 0); // Solidity automatically throws when dividing by 0\r\n    uint256 c = a / b;\r\n    // assert(a == b * c + a % b); // There is no case in which this doesn't hold\r\n    return c;\r\n  }\r\n\r\n  /**\r\n  * @dev Substracts two numbers, throws on overflow (i.e. if subtrahend is greater than minuend).\r\n  */\r\n  function sub(uint256 a, uint256 b) internal pure returns (uint256) {\r\n    assert(b <= a);\r\n    return a - b;\r\n  }\r\n\r\n  /**\r\n  * @dev Adds two numbers, throws on overflow.\r\n  */\r\n  function add(uint256 a, uint256 b) internal pure returns (uint256) {\r\n    uint256 c = a + b;\r\n    assert(c >= a);\r\n    return c;\r\n  }\r\n}",
  "sourcePath": "/home/ec2-user/petshop/contracts/ItemRegistry.sol",
  "compiler": {
    "name": "solc",
    "version": "0.4.18+commit.9cf6e910.Emscripten.clang"
  },
  "schemaVersion": "1.0.1",
  "updatedAt": "2018-05-09T01:42:08.252Z"
}