{
  "contractName": "ItemRegistry",
  "abi": [
    {
      "constant": true,
      "inputs": [],
      "name": "owner",
      "outputs": [
        {
          "name": "",
          "type": "address"
        }
      ],
      "payable": false,
      "stateMutability": "view",
      "type": "function"
    },
    {
      "inputs": [],
      "payable": false,
      "stateMutability": "nonpayable",
      "type": "constructor"
    },
    {
      "anonymous": false,
      "inputs": [
        {
          "indexed": true,
          "name": "_itemId",
          "type": "uint256"
        },
        {
          "indexed": true,
          "name": "_owner",
          "type": "address"
        },
        {
          "indexed": false,
          "name": "_price",
          "type": "uint256"
        }
      ],
      "name": "Bought",
      "type": "event"
    },
    {
      "anonymous": false,
      "inputs": [
        {
          "indexed": true,
          "name": "_itemId",
          "type": "uint256"
        },
        {
          "indexed": true,
          "name": "_owner",
          "type": "address"
        },
        {
          "indexed": false,
          "name": "_price",
          "type": "uint256"
        }
      ],
      "name": "Sold",
      "type": "event"
    },
    {
      "constant": false,
      "inputs": [
        {
          "name": "_owner",
          "type": "address"
        }
      ],
      "name": "setOwner",
      "outputs": [],
      "payable": false,
      "stateMutability": "nonpayable",
      "type": "function"
    },
    {
      "constant": false,
      "inputs": [],
      "name": "withdrawAll",
      "outputs": [],
      "payable": false,
      "stateMutability": "nonpayable",
      "type": "function"
    },
    {
      "constant": false,
      "inputs": [
        {
          "name": "_amount",
          "type": "uint256"
        },
        {
          "name": "_to",
          "type": "address"
        }
      ],
      "name": "withdrawAmountTo",
      "outputs": [],
      "payable": false,
      "stateMutability": "nonpayable",
      "type": "function"
    },
    {
      "constant": false,
      "inputs": [
        {
          "name": "_itemId",
          "type": "uint256"
        },
        {
          "name": "_price",
          "type": "uint256"
        },
        {
          "name": "_class",
          "type": "uint8"
        },
        {
          "name": "_owner",
          "type": "address"
        }
      ],
      "name": "listItem",
      "outputs": [],
      "payable": false,
      "stateMutability": "nonpayable",
      "type": "function"
    },
    {
      "constant": false,
      "inputs": [
        {
          "name": "_itemIds",
          "type": "uint256[]"
        },
        {
          "name": "_price",
          "type": "uint256"
        },
        {
          "name": "_class",
          "type": "uint8"
        }
      ],
      "name": "listMultipleItems",
      "outputs": [],
      "payable": false,
      "stateMutability": "nonpayable",
      "type": "function"
    },
    {
      "constant": true,
      "inputs": [
        {
          "name": "_owner",
          "type": "address"
        }
      ],
      "name": "balanceOf",
      "outputs": [
        {
          "name": "_balance",
          "type": "uint256"
        }
      ],
      "payable": false,
      "stateMutability": "view",
      "type": "function"
    },
    {
      "constant": true,
      "inputs": [
        {
          "name": "_itemId",
          "type": "uint256"
        }
      ],
      "name": "ownerOf",
      "outputs": [
        {
          "name": "_owner",
          "type": "address"
        }
      ],
      "payable": false,
      "stateMutability": "view",
      "type": "function"
    },
    {
      "constant": true,
      "inputs": [
        {
          "name": "_itemId",
          "type": "uint256"
        }
      ],
      "name": "startingPriceOf",
      "outputs": [
        {
          "name": "_startingPrice",
          "type": "uint256"
        }
      ],
      "payable": false,
      "stateMutability": "view",
      "type": "function"
    },
    {
      "constant": true,
      "inputs": [
        {
          "name": "_itemId",
          "type": "uint256"
        }
      ],
      "name": "priceOf",
      "outputs": [
        {
          "name": "_price",
          "type": "uint256"
        }
      ],
      "payable": false,
      "stateMutability": "view",
      "type": "function"
    },
    {
      "constant": true,
      "inputs": [
        {
          "name": "_itemId",
          "type": "uint256"
        }
      ],
      "name": "classOf",
      "outputs": [
        {
          "name": "_class",
          "type": "uint8"
        }
      ],
      "payable": false,
      "stateMutability": "view",
      "type": "function"
    },
    {
      "constant": true,
      "inputs": [
        {
          "name": "_itemId",
          "type": "uint256"
        }
      ],
      "name": "nextPriceOf",
      "outputs": [
        {
          "name": "_nextPrice",
          "type": "uint256"
        }
      ],
      "payable": false,
      "stateMutability": "view",
      "type": "function"
    },
    {
      "constant": true,
      "inputs": [
        {
          "name": "_itemId",
          "type": "uint256"
        }
      ],
      "name": "allOf",
      "outputs": [
        {
          "name": "_owner",
          "type": "address"
        },
        {
          "name": "_startingPrice",
          "type": "uint256"
        },
        {
          "name": "_price",
          "type": "uint256"
        },
        {
          "name": "_class",
          "type": "uint8"
        },
        {
          "name": "_nextPrice",
          "type": "uint256"
        }
      ],
      "payable": false,
      "stateMutability": "view",
      "type": "function"
    },
    {
      "constant": true,
      "inputs": [
        {
          "name": "_owner",
          "type": "address"
        }
      ],
      "name": "itemsOfOwner",
      "outputs": [
        {
          "name": "_items",
          "type": "uint256[]"
        }
      ],
      "payable": false,
      "stateMutability": "view",
      "type": "function"
    },
    {
      "constant": true,
      "inputs": [],
      "name": "numberOfItemsForSale",
      "outputs": [
        {
          "name": "_n",
          "type": "uint256"
        }
      ],
      "payable": false,
      "stateMutability": "view",
      "type": "function"
    },
    {
      "constant": true,
      "inputs": [
        {
          "name": "_from",
          "type": "uint256"
        },
        {
          "name": "_take",
          "type": "uint256"
        }
      ],
      "name": "itemsForSaleLimit",
      "outputs": [
        {
          "name": "_items",
          "type": "uint256[]"
        }
      ],
      "payable": false,
      "stateMutability": "view",
      "type": "function"
    },
    {
      "constant": true,
      "inputs": [],
      "name": "allItemsForSale",
      "outputs": [
        {
          "name": "_items",
          "type": "uint256[]"
        }
      ],
      "payable": false,
      "stateMutability": "view",
      "type": "function"
    },
    {
      "constant": true,
      "inputs": [
        {
          "name": "_currentPrice",
          "type": "uint256"
        },
        {
          "name": "_class",
          "type": "uint8"
        }
      ],
      "name": "calculateNextPrice",
      "outputs": [
        {
          "name": "_newPrice",
          "type": "uint256"
        }
      ],
      "payable": false,
      "stateMutability": "pure",
      "type": "function"
    },
    {
      "constant": false,
      "inputs": [
        {
          "name": "_itemId",
          "type": "uint256"
        }
      ],
      "name": "buy",
      "outputs": [],
      "payable": true,
      "stateMutability": "payable",
      "type": "function"
    }
  ],
  "bytecode": "0x606060405260056001556064600255341561001957600080fd5b336000806101000a81548173ffffffffffffffffffffffffffffffffffffffff021916908373ffffffffffffffffffffffffffffffffffffffff1602179055506115dd806100686000396000f300606060405260043610610107576000357c0100000000000000000000000000000000000000000000000000000000900463ffffffff16806313af40351461010c5780632e4f43bf146101455780633a3d12d4146101d25780634324aa21146101fb5780635191e37f146102405780635435bac8146102835780635ba9e48e146103045780636352211e1461033b57806370a082311461039e578063853828b6146103eb5780638da5cb5b146104005780639a4ca3cb14610455578063af7520b9146104e3578063b1237eae1461051a578063b9186d7d1461055c578063bc358af914610593578063d96a094a146105ea578063f0d0701414610602578063fa0a8f261461066c575b600080fd5b341561011757600080fd5b610143600480803573ffffffffffffffffffffffffffffffffffffffff169060200190919050506106af565b005b341561015057600080fd5b610166600480803590602001909190505061074d565b604051808673ffffffffffffffffffffffffffffffffffffffff1673ffffffffffffffffffffffffffffffffffffffff1681526020018581526020018481526020018360038111156101b457fe5b60ff1681526020018281526020019550505050505060405180910390f35b34156101dd57600080fd5b6101e5610795565b6040518082815260200191505060405180910390f35b341561020657600080fd5b61021c60048080359060200190919050506107a2565b6040518082600381111561022c57fe5b60ff16815260200191505060405180910390f35b341561024b57600080fd5b6102816004808035906020019082018035906020019190919290803590602001909190803560ff169060200190919050506107cc565b005b341561028e57600080fd5b6102ad600480803590602001909190803590602001909190505061086d565b6040518080602001828103825283818151815260200191508051906020019060200280838360005b838110156102f05780820151818401526020810190506102d5565b505050509050019250505060405180910390f35b341561030f57600080fd5b61032560048080359060200190919050506108fe565b6040518082815260200191505060405180910390f35b341561034657600080fd5b61035c6004808035906020019091905050610921565b604051808273ffffffffffffffffffffffffffffffffffffffff1673ffffffffffffffffffffffffffffffffffffffff16815260200191505060405180910390f35b34156103a957600080fd5b6103d5600480803573ffffffffffffffffffffffffffffffffffffffff1690602001909190505061095e565b6040518082815260200191505060405180910390f35b34156103f657600080fd5b6103fe6109ee565b005b341561040b57600080fd5b610413610ac3565b604051808273ffffffffffffffffffffffffffffffffffffffff1673ffffffffffffffffffffffffffffffffffffffff16815260200191505060405180910390f35b341561046057600080fd5b61048c600480803573ffffffffffffffffffffffffffffffffffffffff16906020019091905050610ae8565b6040518080602001828103825283818151815260200191508051906020019060200280838360005b838110156104cf5780820151818401526020810190506104b4565b505050509050019250505060405180910390f35b34156104ee57600080fd5b6105046004808035906020019091905050610be6565b6040518082815260200191505060405180910390f35b341561052557600080fd5b61055a600480803590602001909190803573ffffffffffffffffffffffffffffffffffffffff16906020019091905050610c03565b005b341561056757600080fd5b61057d6004808035906020019091905050610ca2565b6040518082815260200191505060405180910390f35b341561059e57600080fd5b6105e8600480803590602001909190803590602001909190803560ff1690602001909190803573ffffffffffffffffffffffffffffffffffffffff16906020019091905050610cbf565b005b6106006004808035906020019091905050610ec3565b005b341561060d57600080fd5b61061561119f565b6040518080602001828103825283818151815260200191508051906020019060200280838360005b8381101561065857808201518184015260208101905061063d565b505050509050019250505060405180910390f35b341561067757600080fd5b610699600480803590602001909190803560ff169060200190919050506111fd565b6040518082815260200191505060405180910390f35b3373ffffffffffffffffffffffffffffffffffffffff166000809054906101000a900473ffffffffffffffffffffffffffffffffffffffff1673ffffffffffffffffffffffffffffffffffffffff1614151561070a57600080fd5b806000806101000a81548173ffffffffffffffffffffffffffffffffffffffff021916908373ffffffffffffffffffffffffffffffffffffffff16021790555050565b600080600080600061075e86610921565b61076787610be6565b61077088610ca2565b610779896107a2565b6107828a6108fe565b9450945094509450945091939590929450565b6000600380549050905090565b60006007600083815260200190815260200160002060009054906101000a900460ff169050919050565b60003373ffffffffffffffffffffffffffffffffffffffff166000809054906101000a900473ffffffffffffffffffffffffffffffffffffffff1673ffffffffffffffffffffffffffffffffffffffff1614151561082957600080fd5b600090505b8484905081101561086657610859858583818110151561084a57fe5b90506020020135848433610cbf565b808060010191505061082e565b5050505050565b61087561154c565b61087d61154c565b60008360405180591061088d5750595b90808252806020026020018201604052509150600090505b838110156108f35760038186018154811015156108be57fe5b90600052602060002090015482828151811015156108d857fe5b906020019060200201818152505080806001019150506108a5565b819250505092915050565b600061091a61090c83610ca2565b610915846107a2565b6111fd565b9050919050565b60006004600083815260200190815260200160002060009054906101000a900473ffffffffffffffffffffffffffffffffffffffff169050919050565b6000806000809150600090505b6003805490508110156109e4578373ffffffffffffffffffffffffffffffffffffffff166109b26003838154811015156109a157fe5b906000526020600020900154610921565b73ffffffffffffffffffffffffffffffffffffffff1614156109d75781806001019250505b808060010191505061096b565b8192505050919050565b3373ffffffffffffffffffffffffffffffffffffffff166000809054906101000a900473ffffffffffffffffffffffffffffffffffffffff1673ffffffffffffffffffffffffffffffffffffffff16141515610a4957600080fd5b6000809054906101000a900473ffffffffffffffffffffffffffffffffffffffff1673ffffffffffffffffffffffffffffffffffffffff166108fc3073ffffffffffffffffffffffffffffffffffffffff16319081150290604051600060405180830381858888f193505050501515610ac157600080fd5b565b6000809054906101000a900473ffffffffffffffffffffffffffffffffffffffff1681565b610af061154c565b610af861154c565b600080610b048561095e565b604051805910610b115750595b9080825280602002602001820160405250925060009150600090505b600380549050811015610bdb578473ffffffffffffffffffffffffffffffffffffffff16610b74600383815481101515610b6357fe5b906000526020600020900154610921565b73ffffffffffffffffffffffffffffffffffffffff161415610bce57600381815481101515610b9f57fe5b9060005260206000209001548383815181101515610bb957fe5b90602001906020020181815250506001820191505b8080600101915050610b2d565b829350505050919050565b600060056000838152602001908152602001600020549050919050565b3373ffffffffffffffffffffffffffffffffffffffff166000809054906101000a900473ffffffffffffffffffffffffffffffffffffffff1673ffffffffffffffffffffffffffffffffffffffff16141515610c5e57600080fd5b8073ffffffffffffffffffffffffffffffffffffffff166108fc839081150290604051600060405180830381858888f193505050501515610c9e57600080fd5b5050565b600060066000838152602001908152602001600020549050919050565b3373ffffffffffffffffffffffffffffffffffffffff166000809054906101000a900473ffffffffffffffffffffffffffffffffffffffff1673ffffffffffffffffffffffffffffffffffffffff16141515610d1a57600080fd5b600083111515610d2957600080fd5b60006006600086815260200190815260200160002054141515610d4b57600080fd5b600073ffffffffffffffffffffffffffffffffffffffff166004600086815260200190815260200160002060009054906101000a900473ffffffffffffffffffffffffffffffffffffffff1673ffffffffffffffffffffffffffffffffffffffff16141515610db957600080fd5b600380811115610dc557fe5b826003811115610dd157fe5b11151515610dde57600080fd5b806004600086815260200190815260200160002060006101000a81548173ffffffffffffffffffffffffffffffffffffffff021916908373ffffffffffffffffffffffffffffffffffffffff160217905550826006600086815260200190815260200160002081905550826005600086815260200190815260200160002081905550816007600086815260200190815260200160002060006101000a81548160ff02191690836003811115610e8f57fe5b021790555060038054806001018281610ea89190611560565b91600052602060002090016000869091909150555050505050565b600080600080600080610ed587610ca2565b111515610ee157600080fd5b600073ffffffffffffffffffffffffffffffffffffffff16610f0287610921565b73ffffffffffffffffffffffffffffffffffffffff1614151515610f2557600080fd5b610f2e86610ca2565b3410151515610f3c57600080fd5b3373ffffffffffffffffffffffffffffffffffffffff16610f5c87610921565b73ffffffffffffffffffffffffffffffffffffffff1614151515610f7f57600080fd5b610f88336114e3565b151515610f9457600080fd5b610f9d86610921565b9450339350610fab86610ca2565b92508234039150836004600088815260200190815260200160002060006101000a81548173ffffffffffffffffffffffffffffffffffffffff021916908373ffffffffffffffffffffffffffffffffffffffff16021790555061100d866108fe565b60066000888152602001908152602001600020819055508373ffffffffffffffffffffffffffffffffffffffff16867fd2728f908c7e0feb83c6278798370fcb86b62f236c9dbf1a3f541096c2159040856040518082815260200191505060405180910390a38473ffffffffffffffffffffffffffffffffffffffff16867f66f5cd880edf48cdde6c966e5da0784fcc4c5e85572b8b3b62c4357798d447d7856040518082815260200191505060405180910390a36000905060006002541180156110da57506000600154115b1561110b576111086002546110fa600154866114f690919063ffffffff16565b61153190919063ffffffff16565b90505b8473ffffffffffffffffffffffffffffffffffffffff166108fc8285039081150290604051600060405180830381858888f19350505050151561114d57600080fd5b6000821115611197578373ffffffffffffffffffffffffffffffffffffffff166108fc839081150290604051600060405180830381858888f19350505050151561119657600080fd5b5b505050505050565b6111a761154c565b60038054806020026020016040519081016040528092919081815260200182805480156111f357602002820191906000526020600020905b8154815260200190600101908083116111df575b5050505050905090565b600080600381111561120b57fe5b82600381111561121757fe5b14156112b55766b1a2bc2ec5000083111515611248576112416002846114f690919063ffffffff16565b90506114dd565b6706f05b59d3b20000831115156112875761128060646112726075866114f690919063ffffffff16565b61153190919063ffffffff16565b90506114dd565b6112ae60646112a06070866114f690919063ffffffff16565b61153190919063ffffffff16565b90506114dd565b600160038111156112c257fe5b8260038111156112ce57fe5b141561136d5767016345785d8a000083111515611300576112f96002846114f690919063ffffffff16565b90506114dd565b6706f05b59d3b200008311151561133f57611338606461132a6076866114f690919063ffffffff16565b61153190919063ffffffff16565b90506114dd565b61136660646113586071866114f690919063ffffffff16565b61153190919063ffffffff16565b90506114dd565b6002600381111561137a57fe5b82600381111561138657fe5b141561142557670214e8348c4f0000831115156113b8576113b16002846114f690919063ffffffff16565b90506114dd565b6706f05b59d3b20000831115156113f7576113f060646113e26077866114f690919063ffffffff16565b61153190919063ffffffff16565b90506114dd565b61141e60646114106072866114f690919063ffffffff16565b61153190919063ffffffff16565b90506114dd565b60038081111561143157fe5b82600381111561143d57fe5b14156114dc576702c68af0bb1400008311151561146f576114686002846114f690919063ffffffff16565b90506114dd565b6706f05b59d3b20000831115156114ae576114a760646114996078866114f690919063ffffffff16565b61153190919063ffffffff16565b90506114dd565b6114d560646114c76073866114f690919063ffffffff16565b61153190919063ffffffff16565b90506114dd565b5b92915050565b600080823b905060008111915050919050565b600080600084141561150b576000915061152a565b828402905082848281151561151c57fe5b0414151561152657fe5b8091505b5092915050565b600080828481151561153f57fe5b0490508091505092915050565b602060405190810160405280600081525090565b81548183558181151161158757818360005260206000209182019101611586919061158c565b5b505050565b6115ae91905b808211156115aa576000816000905550600101611592565b5090565b905600a165627a7a723058207c00662ed54911b2bf2ee35858578e05f3c27c59049d5e116a7fdc32ac81d85c0029",
  "source": "pragma solidity ^0.4.13;\r\n\r\ncontract ItemRegistry {\r\n  using SafeMath for uint256;\r\n\r\n  enum ItemClass {TIER1, TIER2, TIER3, TIER4}\r\n\r\n  event Bought (uint256 indexed _itemId, address indexed _owner, uint256 _price);\r\n  event Sold (uint256 indexed _itemId, address indexed _owner, uint256 _price);\r\n\r\n  address public owner;\r\n  uint256 cutNumerator = 5;\r\n  uint256 cutDenominator = 100;\r\n\r\n  uint256[] private listedItems;\r\n  mapping (uint256 => address) private ownerOfItem;\r\n  mapping (uint256 => uint256) private startingPriceOfItem;\r\n  mapping (uint256 => uint256) private priceOfItem;\r\n  mapping (uint256 => ItemClass) private classOfItem;\r\n\r\n  function ItemRegistry () public {\r\n    owner = msg.sender;\r\n  }\r\n\r\n  /* Modifiers */\r\n  modifier onlyOwner() {\r\n    require(owner == msg.sender);\r\n    _;\r\n  }\r\n\r\n  /* Admin */\r\n  function setOwner (address _owner) onlyOwner() public {\r\n    owner = _owner;\r\n  }\r\n\r\n  function withdrawAll () onlyOwner() public {\r\n    owner.transfer(this.balance);\r\n  }\r\n\r\n  function withdrawAmountTo (uint256 _amount, address _to) onlyOwner() public {\r\n    _to.transfer(_amount);\r\n  }\r\n\r\n  function listItem (uint256 _itemId, uint256 _price, ItemClass _class, address _owner) onlyOwner() public {\r\n    require(_price > 0);\r\n    require(priceOfItem[_itemId] == 0);\r\n    require(ownerOfItem[_itemId] == address(0));\r\n    require(_class <= ItemClass.TIER4);\r\n\r\n    ownerOfItem[_itemId] = _owner;\r\n    priceOfItem[_itemId] = _price;\r\n    startingPriceOfItem[_itemId] = _price;\r\n    classOfItem[_itemId] = _class;\r\n    listedItems.push(_itemId);\r\n  }\r\n\r\n  function listMultipleItems (uint256[] _itemIds, uint256 _price, ItemClass _class) onlyOwner() external {\r\n    for (uint256 i = 0; i < _itemIds.length; i++) {\r\n      listItem(_itemIds[i], _price, _class, msg.sender);\r\n    }\r\n  }\r\n\r\n  /* Read */\r\n  function balanceOf (address _owner) public view returns (uint256 _balance) {\r\n    uint256 counter = 0;\r\n\r\n    for (uint256 i = 0; i < listedItems.length; i++) {\r\n      if (ownerOf(listedItems[i]) == _owner) {\r\n        counter++;\r\n      }\r\n    }\r\n\r\n    return counter;\r\n  }\r\n\r\n  function ownerOf (uint256 _itemId) public view returns (address _owner) {\r\n    return ownerOfItem[_itemId];\r\n  }\r\n\r\n  function startingPriceOf (uint256 _itemId) public view returns (uint256 _startingPrice) {\r\n    return startingPriceOfItem[_itemId];\r\n  }\r\n\r\n  function priceOf (uint256 _itemId) public view returns (uint256 _price) {\r\n    return priceOfItem[_itemId];\r\n  }\r\n\r\n  function classOf (uint256 _itemId) public view returns (ItemClass _class) {\r\n    return classOfItem[_itemId];\r\n  }\r\n\r\n  function nextPriceOf (uint256 _itemId) public view returns (uint256 _nextPrice) {\r\n    return calculateNextPrice(priceOf(_itemId), classOf(_itemId));\r\n  }\r\n\r\n  function allOf (uint256 _itemId) external view returns (address _owner, uint256 _startingPrice, uint256 _price, ItemClass _class, uint256 _nextPrice) {\r\n    return (ownerOf(_itemId), startingPriceOf(_itemId), priceOf(_itemId), classOf(_itemId), nextPriceOf(_itemId));\r\n  }\r\n\r\n  function itemsOfOwner (address _owner) public view returns (uint256[] _items) {\r\n    uint256[] memory items = new uint256[](balanceOf(_owner));\r\n\r\n    uint256 itemCounter = 0;\r\n    for (uint256 i = 0; i < listedItems.length; i++) {\r\n      if (ownerOf(listedItems[i]) == _owner) {\r\n        items[itemCounter] = listedItems[i];\r\n        itemCounter += 1;\r\n      }\r\n    }\r\n\r\n    return items;\r\n  }\r\n\r\n  function numberOfItemsForSale () public view returns (uint256 _n) {\r\n    return listedItems.length;\r\n  }\r\n\r\n  function itemsForSaleLimit (uint256 _from, uint256 _take) public view returns (uint256[] _items) {\r\n    uint256[] memory items = new uint256[](_take);\r\n\r\n    for (uint256 i = 0; i < _take; i++) {\r\n      items[i] = listedItems[_from + i];\r\n    }\r\n\r\n    return items;\r\n  }\r\n\r\n  function allItemsForSale () public view returns (uint256[] _items) {\r\n    return listedItems;\r\n  }\r\n\r\n  /* Next price */\r\n  function calculateNextPrice (uint256 _currentPrice, ItemClass _class) public pure returns (uint256 _newPrice) {\r\n    if (_class == ItemClass.TIER1) {\r\n      if (_currentPrice <= 0.05 ether) {\r\n        return _currentPrice.mul(2); // 2\r\n      } else if (_currentPrice <= 0.5 ether) {\r\n        return _currentPrice.mul(117).div(100); // 1.17\r\n      } else {\r\n        return _currentPrice.mul(112).div(100); // 1.12\r\n      }\r\n    }\r\n\r\n    if (_class == ItemClass.TIER2) {\r\n      if (_currentPrice <= 0.1 ether) {\r\n        return _currentPrice.mul(2); // 2\r\n      } else if (_currentPrice <= 0.5 ether) {\r\n        return _currentPrice.mul(118).div(100); // 1.18\r\n      } else {\r\n        return _currentPrice.mul(113).div(100); // 1.13\r\n      }\r\n    }\r\n\r\n    if (_class == ItemClass.TIER3) {\r\n      if (_currentPrice <= 0.15 ether) {\r\n        return _currentPrice.mul(2);  // 2\r\n      } else if (_currentPrice <= 0.5 ether) {\r\n        return _currentPrice.mul(119).div(100); // 1.19\r\n      } else {\r\n        return _currentPrice.mul(114).div(100); // 1.14\r\n      }\r\n    }\r\n\r\n    if (_class == ItemClass.TIER4) {\r\n      if (_currentPrice <= 0.2 ether) {\r\n        return _currentPrice.mul(2); // 2\r\n      } else if (_currentPrice <= 0.5 ether) {\r\n        return _currentPrice.mul(120).div(100); // 1.2\r\n      } else {\r\n        return  _currentPrice.mul(115).div(100); // 1.15\r\n      }\r\n    }\r\n  }\r\n\r\n  /* Buy */\r\n  function buy (uint256 _itemId) payable public {\r\n    require(priceOf(_itemId) > 0);\r\n    require(ownerOf(_itemId) != address(0));\r\n    require(msg.value >= priceOf(_itemId));\r\n    require(ownerOf(_itemId) != msg.sender);\r\n    require(!isContract(msg.sender));\r\n\r\n    address oldOwner = ownerOf(_itemId);\r\n    address newOwner = msg.sender;\r\n    uint256 price = priceOf(_itemId);\r\n    uint256 excess = msg.value - price;\r\n\r\n    ownerOfItem[_itemId] = newOwner;\r\n    priceOfItem[_itemId] = nextPriceOf(_itemId);\r\n\r\n    Bought(_itemId, newOwner, price);\r\n    Sold(_itemId, oldOwner, price);\r\n\r\n    uint256 cut = 0;\r\n    if (cutDenominator > 0 && cutNumerator > 0) {\r\n      cut = price.mul(cutNumerator).div(cutDenominator);\r\n    }\r\n\r\n    oldOwner.transfer(price - cut);\r\n\r\n    if (excess > 0) {\r\n      newOwner.transfer(excess);\r\n    }\r\n  }\r\n\r\n  /* Util */\r\n  function isContract(address addr) internal view returns (bool) {\r\n    uint size;\r\n    assembly { size := extcodesize(addr) } // solium-disable-line\r\n    return size > 0;\r\n  }\r\n}\r\n\r\nlibrary SafeMath {\r\n\r\n  /**\r\n  * @dev Multiplies two numbers, throws on overflow.\r\n  */\r\n  function mul(uint256 a, uint256 b) internal pure returns (uint256) {\r\n    if (a == 0) {\r\n      return 0;\r\n    }\r\n    uint256 c = a * b;\r\n    assert(c / a == b);\r\n    return c;\r\n  }\r\n\r\n  /**\r\n  * @dev Integer division of two numbers, truncating the quotient.\r\n  */\r\n  function div(uint256 a, uint256 b) internal pure returns (uint256) {\r\n    // assert(b > 0); // Solidity automatically throws when dividing by 0\r\n    uint256 c = a / b;\r\n    // assert(a == b * c + a % b); // There is no case in which this doesn't hold\r\n    return c;\r\n  }\r\n\r\n  /**\r\n  * @dev Substracts two numbers, throws on overflow (i.e. if subtrahend is greater than minuend).\r\n  */\r\n  function sub(uint256 a, uint256 b) internal pure returns (uint256) {\r\n    assert(b <= a);\r\n    return a - b;\r\n  }\r\n\r\n  /**\r\n  * @dev Adds two numbers, throws on overflow.\r\n  */\r\n  function add(uint256 a, uint256 b) internal pure returns (uint256) {\r\n    uint256 c = a + b;\r\n    assert(c >= a);\r\n    return c;\r\n  }\r\n}",
  "sourcePath": "D:\\projects\\others\\blockchain\\ETH\\petshop\\contracts\\ItemRegistry.sol",
  "compiler": {
    "name": "solc",
    "version": "0.4.21+commit.dfe3193c.Emscripten.clang"
  },
  "schemaVersion": "2.0.0",
  "updatedAt": "2018-05-08T02:50:07.249Z"
}