{
  "contractName": "ItemToken",
  "abi": [
    {
      "inputs": [],
      "payable": false,
      "stateMutability": "nonpayable",
      "type": "constructor"
    },
    {
      "anonymous": false,
      "inputs": [
        {
          "indexed": true,
          "name": "_itemId",
          "type": "uint256"
        },
        {
          "indexed": true,
          "name": "_owner",
          "type": "address"
        },
        {
          "indexed": false,
          "name": "_price",
          "type": "uint256"
        }
      ],
      "name": "Bought",
      "type": "event"
    },
    {
      "anonymous": false,
      "inputs": [
        {
          "indexed": true,
          "name": "_itemId",
          "type": "uint256"
        },
        {
          "indexed": true,
          "name": "_owner",
          "type": "address"
        },
        {
          "indexed": false,
          "name": "_price",
          "type": "uint256"
        }
      ],
      "name": "Sold",
      "type": "event"
    },
    {
      "anonymous": false,
      "inputs": [
        {
          "indexed": true,
          "name": "_from",
          "type": "address"
        },
        {
          "indexed": true,
          "name": "_to",
          "type": "address"
        },
        {
          "indexed": false,
          "name": "_tokenId",
          "type": "uint256"
        }
      ],
      "name": "Transfer",
      "type": "event"
    },
    {
      "anonymous": false,
      "inputs": [
        {
          "indexed": true,
          "name": "_owner",
          "type": "address"
        },
        {
          "indexed": true,
          "name": "_approved",
          "type": "address"
        },
        {
          "indexed": false,
          "name": "_tokenId",
          "type": "uint256"
        }
      ],
      "name": "Approval",
      "type": "event"
    },
    {
      "constant": false,
      "inputs": [
        {
          "name": "_owner",
          "type": "address"
        }
      ],
      "name": "setOwner",
      "outputs": [],
      "payable": false,
      "stateMutability": "nonpayable",
      "type": "function"
    },
    {
      "constant": false,
      "inputs": [
        {
          "name": "_itemRegistry",
          "type": "address"
        }
      ],
      "name": "setItemRegistry",
      "outputs": [],
      "payable": false,
      "stateMutability": "nonpayable",
      "type": "function"
    },
    {
      "constant": false,
      "inputs": [
        {
          "name": "_admin",
          "type": "address"
        }
      ],
      "name": "addAdmin",
      "outputs": [],
      "payable": false,
      "stateMutability": "nonpayable",
      "type": "function"
    },
    {
      "constant": false,
      "inputs": [
        {
          "name": "_admin",
          "type": "address"
        }
      ],
      "name": "removeAdmin",
      "outputs": [],
      "payable": false,
      "stateMutability": "nonpayable",
      "type": "function"
    },
    {
      "constant": false,
      "inputs": [],
      "name": "enableERC721",
      "outputs": [],
      "payable": false,
      "stateMutability": "nonpayable",
      "type": "function"
    },
    {
      "constant": false,
      "inputs": [],
      "name": "withdrawAll",
      "outputs": [],
      "payable": false,
      "stateMutability": "nonpayable",
      "type": "function"
    },
    {
      "constant": false,
      "inputs": [
        {
          "name": "_amount",
          "type": "uint256"
        }
      ],
      "name": "withdrawAmount",
      "outputs": [],
      "payable": false,
      "stateMutability": "nonpayable",
      "type": "function"
    },
    {
      "constant": false,
      "inputs": [
        {
          "name": "_itemIds",
          "type": "uint256[]"
        }
      ],
      "name": "populateFromItemRegistry",
      "outputs": [],
      "payable": false,
      "stateMutability": "nonpayable",
      "type": "function"
    },
    {
      "constant": false,
      "inputs": [
        {
          "name": "_itemId",
          "type": "uint256"
        }
      ],
      "name": "listItemFromRegistry",
      "outputs": [],
      "payable": false,
      "stateMutability": "nonpayable",
      "type": "function"
    },
    {
      "constant": false,
      "inputs": [
        {
          "name": "_itemIds",
          "type": "uint256[]"
        },
        {
          "name": "_price",
          "type": "uint256"
        },
        {
          "name": "_owner",
          "type": "address"
        }
      ],
      "name": "listMultipleItems",
      "outputs": [],
      "payable": false,
      "stateMutability": "nonpayable",
      "type": "function"
    },
    {
      "constant": false,
      "inputs": [
        {
          "name": "_itemId",
          "type": "uint256"
        },
        {
          "name": "_price",
          "type": "uint256"
        },
        {
          "name": "_owner",
          "type": "address"
        }
      ],
      "name": "listItem",
      "outputs": [],
      "payable": false,
      "stateMutability": "nonpayable",
      "type": "function"
    },
    {
      "constant": true,
      "inputs": [
        {
          "name": "_price",
          "type": "uint256"
        }
      ],
      "name": "calculateNextPrice",
      "outputs": [
        {
          "name": "_nextPrice",
          "type": "uint256"
        }
      ],
      "payable": false,
      "stateMutability": "view",
      "type": "function"
    },
    {
      "constant": true,
      "inputs": [
        {
          "name": "_price",
          "type": "uint256"
        }
      ],
      "name": "calculateDevCut",
      "outputs": [
        {
          "name": "_devCut",
          "type": "uint256"
        }
      ],
      "payable": false,
      "stateMutability": "view",
      "type": "function"
    },
    {
      "constant": false,
      "inputs": [
        {
          "name": "_itemId",
          "type": "uint256"
        }
      ],
      "name": "buy",
      "outputs": [],
      "payable": true,
      "stateMutability": "payable",
      "type": "function"
    },
    {
      "constant": true,
      "inputs": [],
      "name": "implementsERC721",
      "outputs": [
        {
          "name": "_implements",
          "type": "bool"
        }
      ],
      "payable": false,
      "stateMutability": "view",
      "type": "function"
    },
    {
      "constant": true,
      "inputs": [],
      "name": "name",
      "outputs": [
        {
          "name": "_name",
          "type": "string"
        }
      ],
      "payable": false,
      "stateMutability": "pure",
      "type": "function"
    },
    {
      "constant": true,
      "inputs": [],
      "name": "symbol",
      "outputs": [
        {
          "name": "_symbol",
          "type": "string"
        }
      ],
      "payable": false,
      "stateMutability": "pure",
      "type": "function"
    },
    {
      "constant": true,
      "inputs": [],
      "name": "totalSupply",
      "outputs": [
        {
          "name": "_totalSupply",
          "type": "uint256"
        }
      ],
      "payable": false,
      "stateMutability": "view",
      "type": "function"
    },
    {
      "constant": true,
      "inputs": [
        {
          "name": "_owner",
          "type": "address"
        }
      ],
      "name": "balanceOf",
      "outputs": [
        {
          "name": "_balance",
          "type": "uint256"
        }
      ],
      "payable": false,
      "stateMutability": "view",
      "type": "function"
    },
    {
      "constant": true,
      "inputs": [
        {
          "name": "_itemId",
          "type": "uint256"
        }
      ],
      "name": "ownerOf",
      "outputs": [
        {
          "name": "_owner",
          "type": "address"
        }
      ],
      "payable": false,
      "stateMutability": "view",
      "type": "function"
    },
    {
      "constant": true,
      "inputs": [
        {
          "name": "_owner",
          "type": "address"
        }
      ],
      "name": "tokensOf",
      "outputs": [
        {
          "name": "_tokenIds",
          "type": "uint256[]"
        }
      ],
      "payable": false,
      "stateMutability": "view",
      "type": "function"
    },
    {
      "constant": true,
      "inputs": [
        {
          "name": "_itemId",
          "type": "uint256"
        }
      ],
      "name": "tokenExists",
      "outputs": [
        {
          "name": "_exists",
          "type": "bool"
        }
      ],
      "payable": false,
      "stateMutability": "view",
      "type": "function"
    },
    {
      "constant": true,
      "inputs": [
        {
          "name": "_itemId",
          "type": "uint256"
        }
      ],
      "name": "approvedFor",
      "outputs": [
        {
          "name": "_approved",
          "type": "address"
        }
      ],
      "payable": false,
      "stateMutability": "view",
      "type": "function"
    },
    {
      "constant": false,
      "inputs": [
        {
          "name": "_to",
          "type": "address"
        },
        {
          "name": "_itemId",
          "type": "uint256"
        }
      ],
      "name": "approve",
      "outputs": [],
      "payable": false,
      "stateMutability": "nonpayable",
      "type": "function"
    },
    {
      "constant": false,
      "inputs": [
        {
          "name": "_to",
          "type": "address"
        },
        {
          "name": "_itemId",
          "type": "uint256"
        }
      ],
      "name": "transfer",
      "outputs": [],
      "payable": false,
      "stateMutability": "nonpayable",
      "type": "function"
    },
    {
      "constant": false,
      "inputs": [
        {
          "name": "_from",
          "type": "address"
        },
        {
          "name": "_to",
          "type": "address"
        },
        {
          "name": "_itemId",
          "type": "uint256"
        }
      ],
      "name": "transferFrom",
      "outputs": [],
      "payable": false,
      "stateMutability": "nonpayable",
      "type": "function"
    },
    {
      "constant": true,
      "inputs": [
        {
          "name": "_admin",
          "type": "address"
        }
      ],
      "name": "isAdmin",
      "outputs": [
        {
          "name": "_isAdmin",
          "type": "bool"
        }
      ],
      "payable": false,
      "stateMutability": "view",
      "type": "function"
    },
    {
      "constant": true,
      "inputs": [
        {
          "name": "_itemId",
          "type": "uint256"
        }
      ],
      "name": "startingPriceOf",
      "outputs": [
        {
          "name": "_startingPrice",
          "type": "uint256"
        }
      ],
      "payable": false,
      "stateMutability": "view",
      "type": "function"
    },
    {
      "constant": true,
      "inputs": [
        {
          "name": "_itemId",
          "type": "uint256"
        }
      ],
      "name": "priceOf",
      "outputs": [
        {
          "name": "_price",
          "type": "uint256"
        }
      ],
      "payable": false,
      "stateMutability": "view",
      "type": "function"
    },
    {
      "constant": true,
      "inputs": [
        {
          "name": "_itemId",
          "type": "uint256"
        }
      ],
      "name": "nextPriceOf",
      "outputs": [
        {
          "name": "_nextPrice",
          "type": "uint256"
        }
      ],
      "payable": false,
      "stateMutability": "view",
      "type": "function"
    },
    {
      "constant": true,
      "inputs": [
        {
          "name": "_itemId",
          "type": "uint256"
        }
      ],
      "name": "allOf",
      "outputs": [
        {
          "name": "id",
          "type": "uint256"
        },
        {
          "name": "_owner",
          "type": "address"
        },
        {
          "name": "_startingPrice",
          "type": "uint256"
        },
        {
          "name": "_price",
          "type": "uint256"
        },
        {
          "name": "_nextPrice",
          "type": "uint256"
        }
      ],
      "payable": false,
      "stateMutability": "view",
      "type": "function"
    },
    {
      "constant": true,
      "inputs": [
        {
          "name": "_from",
          "type": "uint256"
        },
        {
          "name": "_take",
          "type": "uint256"
        }
      ],
      "name": "itemsForSaleLimit",
      "outputs": [
        {
          "name": "_items",
          "type": "uint256[]"
        }
      ],
      "payable": false,
      "stateMutability": "view",
      "type": "function"
    }
  ],
  "bytecode": "0x60606040526000600260146101000a81548160ff02191690831515021790555066470de4df8200006003556706f05b59d3b20000600455671bc16d674ec80000600555674563918244f40000600655341561005957600080fd5b336000806101000a81548173ffffffffffffffffffffffffffffffffffffffff021916908373ffffffffffffffffffffffffffffffffffffffff16021790555060018060008060009054906101000a900473ffffffffffffffffffffffffffffffffffffffff1673ffffffffffffffffffffffffffffffffffffffff1673ffffffffffffffffffffffffffffffffffffffff16815260200190815260200160002060006101000a81548160ff021916908315150217905550612631806101206000396000f300606060405260043610610195576000357c0100000000000000000000000000000000000000000000000000000000900463ffffffff168062923f9e1461019a5780630562b9f7146101d557806306fdde03146101f8578063095ea7b3146102865780631051db34146102c857806313af4035146102f55780631785f53c1461032e57806318160ddd146103675780631fe8500e1461039057806323b872dd146103c957806324d7806c1461042a5780632a6dd48f1461047b5780632e4f43bf146104de57806337525ff01461055d578063442edd03146105805780635435bac8146105cb5780635a3f26721461064c5780635ba9e48e146106da5780636352211e14610711578063651212051461077457806370480275146107ab57806370a08231146107e457806371dc761e14610831578063853828b6146108465780638f88aed01461085b57806395d89b41146108b5578063a9059cbb14610943578063af7520b914610985578063b9186d7d146109bc578063baddee6f146109f3578063d96a094a14610a49578063e08503ec14610a61575b600080fd5b34156101a557600080fd5b6101bb6004808035906020019091905050610a98565b604051808215151515815260200191505060405180910390f35b34156101e057600080fd5b6101f66004808035906020019091905050610aac565b005b341561020357600080fd5b61020b610b6b565b6040518080602001828103825283818151815260200191508051906020019080838360005b8381101561024b578082015181840152602081019050610230565b50505050905090810190601f1680156102785780820380516001836020036101000a031916815260200191505b509250505060405180910390f35b341561029157600080fd5b6102c6600480803573ffffffffffffffffffffffffffffffffffffffff16906020019091908035906020019091905050610bae565b005b34156102d357600080fd5b6102db610e14565b604051808215151515815260200191505060405180910390f35b341561030057600080fd5b61032c600480803573ffffffffffffffffffffffffffffffffffffffff16906020019091905050610e2b565b005b341561033957600080fd5b610365600480803573ffffffffffffffffffffffffffffffffffffffff16906020019091905050610ec9565b005b341561037257600080fd5b61037a610f76565b6040518082815260200191505060405180910390f35b341561039b57600080fd5b6103c7600480803573ffffffffffffffffffffffffffffffffffffffff16906020019091905050610f83565b005b34156103d457600080fd5b610428600480803573ffffffffffffffffffffffffffffffffffffffff1690602001909190803573ffffffffffffffffffffffffffffffffffffffff16906020019091908035906020019091905050611022565b005b341561043557600080fd5b610461600480803573ffffffffffffffffffffffffffffffffffffffff1690602001909190505061108f565b604051808215151515815260200191505060405180910390f35b341561048657600080fd5b61049c60048080359060200190919050506110e5565b604051808273ffffffffffffffffffffffffffffffffffffffff1673ffffffffffffffffffffffffffffffffffffffff16815260200191505060405180910390f35b34156104e957600080fd5b6104ff6004808035906020019091905050611122565b604051808681526020018573ffffffffffffffffffffffffffffffffffffffff1673ffffffffffffffffffffffffffffffffffffffff1681526020018481526020018381526020018281526020019550505050505060405180910390f35b341561056857600080fd5b61057e6004808035906020019091905050611162565b005b341561058b57600080fd5b6105c9600480803590602001909190803590602001909190803573ffffffffffffffffffffffffffffffffffffffff16906020019091905050611517565b005b34156105d657600080fd5b6105f560048080359060200190919080359060200190919050506116be565b6040518080602001828103825283818151815260200191508051906020019060200280838360005b8381101561063857808201518184015260208101905061061d565b505050509050019250505060405180910390f35b341561065757600080fd5b610683600480803573ffffffffffffffffffffffffffffffffffffffff1690602001909190505061174f565b6040518080602001828103825283818151815260200191508051906020019060200280838360005b838110156106c65780820151818401526020810190506106ab565b505050509050019250505060405180910390f35b34156106e557600080fd5b6106fb600480803590602001909190505061184d565b6040518082815260200191505060405180910390f35b341561071c57600080fd5b6107326004808035906020019091905050611867565b604051808273ffffffffffffffffffffffffffffffffffffffff1673ffffffffffffffffffffffffffffffffffffffff16815260200191505060405180910390f35b341561077f57600080fd5b61079560048080359060200190919050506118a4565b6040518082815260200191505060405180910390f35b34156107b657600080fd5b6107e2600480803573ffffffffffffffffffffffffffffffffffffffff169060200190919050506119b5565b005b34156107ef57600080fd5b61081b600480803573ffffffffffffffffffffffffffffffffffffffff16906020019091905050611a6a565b6040518082815260200191505060405180910390f35b341561083c57600080fd5b610844611afa565b005b341561085157600080fd5b610859611b72565b005b341561086657600080fd5b6108b3600480803590602001908201803590602001908080602002602001604051908101604052809392919081815260200183836020028082843782019150505050505091905050611c47565b005b34156108c057600080fd5b6108c8611de4565b6040518080602001828103825283818151815260200191508051906020019080838360005b838110156109085780820151818401526020810190506108ed565b50505050905090810190601f1680156109355780820380516001836020036101000a031916815260200191505b509250505060405180910390f35b341561094e57600080fd5b610983600480803573ffffffffffffffffffffffffffffffffffffffff16906020019091908035906020019091905050611e27565b005b341561099057600080fd5b6109a66004808035906020019091905050611e93565b6040518082815260200191505060405180910390f35b34156109c757600080fd5b6109dd6004808035906020019091905050611eb0565b6040518082815260200191505060405180910390f35b34156109fe57600080fd5b610a476004808035906020019082018035906020019190919290803590602001909190803573ffffffffffffffffffffffffffffffffffffffff16906020019091905050611ecd565b005b610a5f6004808035906020019091905050611f6a565b005b3415610a6c57600080fd5b610a82600480803590602001909190505061221d565b6040518082815260200191505060405180910390f35b600080610aa483611eb0565b119050919050565b3373ffffffffffffffffffffffffffffffffffffffff166000809054906101000a900473ffffffffffffffffffffffffffffffffffffffff1673ffffffffffffffffffffffffffffffffffffffff16141515610b0757600080fd5b6000809054906101000a900473ffffffffffffffffffffffffffffffffffffffff1673ffffffffffffffffffffffffffffffffffffffff166108fc829081150290604051600060405180830381858888f193505050501515610b6857600080fd5b50565b610b7361258c565b6040805190810160405280601281526020017f546f74616c67616d652e696f205465616d730000000000000000000000000000815250905090565b600260149054906101000a900460ff161515610bc957600080fd5b8173ffffffffffffffffffffffffffffffffffffffff163373ffffffffffffffffffffffffffffffffffffffff1614151515610c0457600080fd5b610c0d81610a98565b1515610c1857600080fd5b3373ffffffffffffffffffffffffffffffffffffffff16610c3882611867565b73ffffffffffffffffffffffffffffffffffffffff16141515610c5a57600080fd5b60008273ffffffffffffffffffffffffffffffffffffffff161415610d58576000600b600083815260200190815260200160002060009054906101000a900473ffffffffffffffffffffffffffffffffffffffff1673ffffffffffffffffffffffffffffffffffffffff16141515610d5357600b600082815260200190815260200160002060006101000a81549073ffffffffffffffffffffffffffffffffffffffff021916905560003373ffffffffffffffffffffffffffffffffffffffff167f8c5be1e5ebec7d5bd14f71427d1e84f3dd0314c0f7b2291e5b200ac8c7c3b925836040518082815260200191505060405180910390a35b610e10565b81600b600083815260200190815260200160002060006101000a81548173ffffffffffffffffffffffffffffffffffffffff021916908373ffffffffffffffffffffffffffffffffffffffff1602179055508173ffffffffffffffffffffffffffffffffffffffff163373ffffffffffffffffffffffffffffffffffffffff167f8c5be1e5ebec7d5bd14f71427d1e84f3dd0314c0f7b2291e5b200ac8c7c3b925836040518082815260200191505060405180910390a35b5050565b6000600260149054906101000a900460ff16905090565b3373ffffffffffffffffffffffffffffffffffffffff166000809054906101000a900473ffffffffffffffffffffffffffffffffffffffff1673ffffffffffffffffffffffffffffffffffffffff16141515610e8657600080fd5b806000806101000a81548173ffffffffffffffffffffffffffffffffffffffff021916908373ffffffffffffffffffffffffffffffffffffffff16021790555050565b3373ffffffffffffffffffffffffffffffffffffffff166000809054906101000a900473ffffffffffffffffffffffffffffffffffffffff1673ffffffffffffffffffffffffffffffffffffffff16141515610f2457600080fd5b600160008273ffffffffffffffffffffffffffffffffffffffff1673ffffffffffffffffffffffffffffffffffffffff16815260200190815260200160002060006101000a81549060ff021916905550565b6000600780549050905090565b3373ffffffffffffffffffffffffffffffffffffffff166000809054906101000a900473ffffffffffffffffffffffffffffffffffffffff1673ffffffffffffffffffffffffffffffffffffffff16141515610fde57600080fd5b80600260006101000a81548173ffffffffffffffffffffffffffffffffffffffff021916908373ffffffffffffffffffffffffffffffffffffffff16021790555050565b600260149054906101000a900460ff16151561103d57600080fd5b3373ffffffffffffffffffffffffffffffffffffffff1661105d826110e5565b73ffffffffffffffffffffffffffffffffffffffff1614151561107f57600080fd5b61108a83838361232e565b505050565b6000600160008373ffffffffffffffffffffffffffffffffffffffff1673ffffffffffffffffffffffffffffffffffffffff16815260200190815260200160002060009054906101000a900460ff169050919050565b6000600b600083815260200190815260200160002060009054906101000a900473ffffffffffffffffffffffffffffffffffffffff169050919050565b60008060008060008561113487611867565b61113d88611e93565b61114689611eb0565b61114f8a61184d565b9450945094509450945091939590929450565b6000803373ffffffffffffffffffffffffffffffffffffffff166000809054906101000a900473ffffffffffffffffffffffffffffffffffffffff1673ffffffffffffffffffffffffffffffffffffffff161415156111c057600080fd5b600073ffffffffffffffffffffffffffffffffffffffff16600260009054906101000a900473ffffffffffffffffffffffffffffffffffffffff1673ffffffffffffffffffffffffffffffffffffffff161415151561121e57600080fd5b600073ffffffffffffffffffffffffffffffffffffffff16600260009054906101000a900473ffffffffffffffffffffffffffffffffffffffff1673ffffffffffffffffffffffffffffffffffffffff16636352211e856040518263ffffffff167c010000000000000000000000000000000000000000000000000000000002815260040180828152602001915050602060405180830381600087803b15156112c657600080fd5b5af115156112d357600080fd5b5050506040518051905073ffffffffffffffffffffffffffffffffffffffff161415151561130057600080fd5b6000600260009054906101000a900473ffffffffffffffffffffffffffffffffffffffff1673ffffffffffffffffffffffffffffffffffffffff1663b9186d7d856040518263ffffffff167c010000000000000000000000000000000000000000000000000000000002815260040180828152602001915050602060405180830381600087803b151561139257600080fd5b5af1151561139f57600080fd5b505050604051805190501115156113b557600080fd5b600260009054906101000a900473ffffffffffffffffffffffffffffffffffffffff1673ffffffffffffffffffffffffffffffffffffffff1663b9186d7d846040518263ffffffff167c010000000000000000000000000000000000000000000000000000000002815260040180828152602001915050602060405180830381600087803b151561144557600080fd5b5af1151561145257600080fd5b505050604051805190509150600260009054906101000a900473ffffffffffffffffffffffffffffffffffffffff1673ffffffffffffffffffffffffffffffffffffffff16636352211e846040518263ffffffff167c010000000000000000000000000000000000000000000000000000000002815260040180828152602001915050602060405180830381600087803b15156114ee57600080fd5b5af115156114fb57600080fd5b505050604051805190509050611512838383611517565b505050565b600160003373ffffffffffffffffffffffffffffffffffffffff1673ffffffffffffffffffffffffffffffffffffffff16815260200190815260200160002060009054906101000a900460ff16151561156f57600080fd5b60008211151561157e57600080fd5b6000600a6000858152602001908152602001600020541415156115a057600080fd5b600073ffffffffffffffffffffffffffffffffffffffff166008600085815260200190815260200160002060009054906101000a900473ffffffffffffffffffffffffffffffffffffffff1673ffffffffffffffffffffffffffffffffffffffff1614151561160e57600080fd5b806008600085815260200190815260200160002060006101000a81548173ffffffffffffffffffffffffffffffffffffffff021916908373ffffffffffffffffffffffffffffffffffffffff16021790555081600a600085815260200190815260200160002081905550816009600085815260200190815260200160002081905550600780548060010182816116a491906125a0565b916000526020600020900160008590919091505550505050565b6116c66125cc565b6116ce6125cc565b6000836040518059106116de5750595b90808252806020026020018201604052509150600090505b8381101561174457600781860181548110151561170f57fe5b906000526020600020900154828281518110151561172957fe5b906020019060200201818152505080806001019150506116f6565b819250505092915050565b6117576125cc565b61175f6125cc565b60008061176b85611a6a565b6040518059106117785750595b9080825280602002602001820160405250925060009150600090505b600780549050811015611842578473ffffffffffffffffffffffffffffffffffffffff166117db6007838154811015156117ca57fe5b906000526020600020900154611867565b73ffffffffffffffffffffffffffffffffffffffff1614156118355760078181548110151561180657fe5b906000526020600020900154838381518110151561182057fe5b90602001906020020181815250506001820191505b8080600101915050611794565b829350505050919050565b600061186061185b83611eb0565b61221d565b9050919050565b60006008600083815260200190815260200160002060009054906101000a900473ffffffffffffffffffffffffffffffffffffffff169050919050565b60006003548210156118de576118d760646118c960058561250a90919063ffffffff16565b61254590919063ffffffff16565b90506119b0565b6004548210156119165761190f606461190160048561250a90919063ffffffff16565b61254590919063ffffffff16565b90506119b0565b60055482101561194e57611947606461193960038561250a90919063ffffffff16565b61254590919063ffffffff16565b90506119b0565b6006548210156119865761197f606461197160038561250a90919063ffffffff16565b61254590919063ffffffff16565b90506119b0565b6119ad606461199f60028561250a90919063ffffffff16565b61254590919063ffffffff16565b90505b919050565b3373ffffffffffffffffffffffffffffffffffffffff166000809054906101000a900473ffffffffffffffffffffffffffffffffffffffff1673ffffffffffffffffffffffffffffffffffffffff16141515611a1057600080fd5b60018060008373ffffffffffffffffffffffffffffffffffffffff1673ffffffffffffffffffffffffffffffffffffffff16815260200190815260200160002060006101000a81548160ff02191690831515021790555050565b6000806000809150600090505b600780549050811015611af0578373ffffffffffffffffffffffffffffffffffffffff16611abe600783815481101515611aad57fe5b906000526020600020900154611867565b73ffffffffffffffffffffffffffffffffffffffff161415611ae35781806001019250505b8080600101915050611a77565b8192505050919050565b3373ffffffffffffffffffffffffffffffffffffffff166000809054906101000a900473ffffffffffffffffffffffffffffffffffffffff1673ffffffffffffffffffffffffffffffffffffffff16141515611b5557600080fd5b6001600260146101000a81548160ff021916908315150217905550565b3373ffffffffffffffffffffffffffffffffffffffff166000809054906101000a900473ffffffffffffffffffffffffffffffffffffffff1673ffffffffffffffffffffffffffffffffffffffff16141515611bcd57600080fd5b6000809054906101000a900473ffffffffffffffffffffffffffffffffffffffff1673ffffffffffffffffffffffffffffffffffffffff166108fc3073ffffffffffffffffffffffffffffffffffffffff16319081150290604051600060405180830381858888f193505050501515611c4557600080fd5b565b60003373ffffffffffffffffffffffffffffffffffffffff166000809054906101000a900473ffffffffffffffffffffffffffffffffffffffff1673ffffffffffffffffffffffffffffffffffffffff16141515611ca457600080fd5b600090505b8151811015611de0576000600a60008484815181101515611cc657fe5b906020019060200201518152602001908152602001600020541180611da857506000600260009054906101000a900473ffffffffffffffffffffffffffffffffffffffff1673ffffffffffffffffffffffffffffffffffffffff1663b9186d7d8484815181101515611d3457fe5b906020019060200201516040518263ffffffff167c010000000000000000000000000000000000000000000000000000000002815260040180828152602001915050602060405180830381600087803b1515611d8f57600080fd5b5af11515611d9c57600080fd5b50505060405180519050145b15611db257611dd3565b611dd28282815181101515611dc357fe5b90602001906020020151611162565b5b8080600101915050611ca9565b5050565b611dec61258c565b6040805190810160405280600381526020017f5447540000000000000000000000000000000000000000000000000000000000815250905090565b600260149054906101000a900460ff161515611e4257600080fd5b611e4b81611867565b73ffffffffffffffffffffffffffffffffffffffff163373ffffffffffffffffffffffffffffffffffffffff16141515611e8457600080fd5b611e8f33838361232e565b5050565b600060096000838152602001908152602001600020549050919050565b6000600a6000838152602001908152602001600020549050919050565b6000600160003373ffffffffffffffffffffffffffffffffffffffff1673ffffffffffffffffffffffffffffffffffffffff16815260200190815260200160002060009054906101000a900460ff161515611f2757600080fd5b600090505b84849050811015611f6357611f568585838181101515611f4857fe5b905060200201358484611517565b8080600101915050611f2c565b5050505050565b600080600080600080611f7c87611eb0565b111515611f8857600080fd5b600073ffffffffffffffffffffffffffffffffffffffff16611fa987611867565b73ffffffffffffffffffffffffffffffffffffffff1614151515611fcc57600080fd5b611fd586611eb0565b3410151515611fe357600080fd5b3373ffffffffffffffffffffffffffffffffffffffff1661200387611867565b73ffffffffffffffffffffffffffffffffffffffff161415151561202657600080fd5b61202f33612560565b15151561203b57600080fd5b600073ffffffffffffffffffffffffffffffffffffffff163373ffffffffffffffffffffffffffffffffffffffff161415151561207757600080fd5b61208086611867565b945033935061208e86611eb0565b92506120a3833461257390919063ffffffff16565b91506120b085858861232e565b6120b98661184d565b600a6000888152602001908152602001600020819055508373ffffffffffffffffffffffffffffffffffffffff16867fd2728f908c7e0feb83c6278798370fcb86b62f236c9dbf1a3f541096c2159040856040518082815260200191505060405180910390a38473ffffffffffffffffffffffffffffffffffffffff16867f66f5cd880edf48cdde6c966e5da0784fcc4c5e85572b8b3b62c4357798d447d7856040518082815260200191505060405180910390a3612177836118a4565b90508473ffffffffffffffffffffffffffffffffffffffff166108fc6121a6838661257390919063ffffffff16565b9081150290604051600060405180830381858888f1935050505015156121cb57600080fd5b6000821115612215578373ffffffffffffffffffffffffffffffffffffffff166108fc839081150290604051600060405180830381858888f19350505050151561221457600080fd5b5b505050505050565b600060035482101561225757612250605f61224260c88561250a90919063ffffffff16565b61254590919063ffffffff16565b9050612329565b60045482101561228f57612288606061227a60878561250a90919063ffffffff16565b61254590919063ffffffff16565b9050612329565b6005548210156122c7576122c060616122b2607d8561250a90919063ffffffff16565b61254590919063ffffffff16565b9050612329565b6006548210156122ff576122f860616122ea60758561250a90919063ffffffff16565b61254590919063ffffffff16565b9050612329565b612326606261231860738561250a90919063ffffffff16565b61254590919063ffffffff16565b90505b919050565b61233781610a98565b151561234257600080fd5b8273ffffffffffffffffffffffffffffffffffffffff1661236282611867565b73ffffffffffffffffffffffffffffffffffffffff1614151561238457600080fd5b600073ffffffffffffffffffffffffffffffffffffffff168273ffffffffffffffffffffffffffffffffffffffff16141515156123c057600080fd5b3073ffffffffffffffffffffffffffffffffffffffff168273ffffffffffffffffffffffffffffffffffffffff16141515156123fb57600080fd5b816008600083815260200190815260200160002060006101000a81548173ffffffffffffffffffffffffffffffffffffffff021916908373ffffffffffffffffffffffffffffffffffffffff1602179055506000600b600083815260200190815260200160002060006101000a81548173ffffffffffffffffffffffffffffffffffffffff021916908373ffffffffffffffffffffffffffffffffffffffff1602179055508173ffffffffffffffffffffffffffffffffffffffff168373ffffffffffffffffffffffffffffffffffffffff167fddf252ad1be2c89b69c2b068fc378daa952ba7f163c4a11628f55a4df523b3ef836040518082815260200191505060405180910390a3505050565b600080600084141561251f576000915061253e565b828402905082848281151561253057fe5b0414151561253a57fe5b8091505b5092915050565b600080828481151561255357fe5b0490508091505092915050565b600080823b905060008111915050919050565b600082821115151561258157fe5b818303905092915050565b602060405190810160405280600081525090565b8154818355818115116125c7578183600052602060002091820191016125c691906125e0565b5b505050565b602060405190810160405280600081525090565b61260291905b808211156125fe5760008160009055506001016125e6565b5090565b905600a165627a7a72305820ff80010dd03af706995485ebd478954783e7a156db12fc30f340116a1354b0040029",
  "source": "pragma solidity ^0.4.13;\r\n\r\nlibrary SafeMath {\r\n\r\n  /**\r\n  * @dev Multiplies two numbers, throws on overflow.\r\n  */\r\n  function mul(uint256 a, uint256 b) internal pure returns (uint256) {\r\n    if (a == 0) {\r\n      return 0;\r\n    }\r\n    uint256 c = a * b;\r\n    assert(c / a == b);\r\n    return c;\r\n  }\r\n\r\n  /**\r\n  * @dev Integer division of two numbers, truncating the quotient.\r\n  */\r\n  function div(uint256 a, uint256 b) internal pure returns (uint256) {\r\n    // assert(b > 0); // Solidity automatically throws when dividing by 0\r\n    uint256 c = a / b;\r\n    // assert(a == b * c + a % b); // There is no case in which this doesn't hold\r\n    return c;\r\n  }\r\n\r\n  /**\r\n  * @dev Substracts two numbers, throws on overflow (i.e. if subtrahend is greater than minuend).\r\n  */\r\n  function sub(uint256 a, uint256 b) internal pure returns (uint256) {\r\n    assert(b <= a);\r\n    return a - b;\r\n  }\r\n\r\n  /**\r\n  * @dev Adds two numbers, throws on overflow.\r\n  */\r\n  function add(uint256 a, uint256 b) internal pure returns (uint256) {\r\n    uint256 c = a + b;\r\n    assert(c >= a);\r\n    return c;\r\n  }\r\n}\r\n\r\ncontract ItemToken {\r\n  using SafeMath for uint256;\r\n\r\n  event Bought (uint256 indexed _itemId, address indexed _owner, uint256 _price);\r\n  event Sold (uint256 indexed _itemId, address indexed _owner, uint256 _price);\r\n  event Transfer(address indexed _from, address indexed _to, uint256 _tokenId);\r\n  event Approval(address indexed _owner, address indexed _approved, uint256 _tokenId);\r\n\r\n  address private owner;\r\n  mapping (address => bool) private admins;\r\n  IItemRegistry private itemRegistry;\r\n  bool private erc721Enabled = false;\r\n\r\n  uint256 private increaseLimit1 = 0.02 ether;\r\n  uint256 private increaseLimit2 = 0.5 ether;\r\n  uint256 private increaseLimit3 = 2.0 ether;\r\n  uint256 private increaseLimit4 = 5.0 ether;\r\n\r\n  uint256[] private listedItems;\r\n  mapping (uint256 => address) private ownerOfItem;\r\n  mapping (uint256 => uint256) private startingPriceOfItem;\r\n  mapping (uint256 => uint256) private priceOfItem;\r\n  mapping (uint256 => address) private approvedOfItem;\r\n\r\n  function ItemToken () public {\r\n    owner = msg.sender;\r\n    admins[owner] = true;\r\n  }\r\n\r\n  /* Modifiers */\r\n  modifier onlyOwner() {\r\n    require(owner == msg.sender);\r\n    _;\r\n  }\r\n\r\n  modifier onlyAdmins() {\r\n    require(admins[msg.sender]);\r\n    _;\r\n  }\r\n\r\n  modifier onlyERC721() {\r\n    require(erc721Enabled);\r\n    _;\r\n  }\r\n\r\n  /* Owner */\r\n  function setOwner (address _owner) onlyOwner() public {\r\n    owner = _owner;\r\n  }\r\n\r\n  function setItemRegistry (address _itemRegistry) onlyOwner() public {\r\n    itemRegistry = IItemRegistry(_itemRegistry);\r\n  }\r\n\r\n  function addAdmin (address _admin) onlyOwner() public {\r\n    admins[_admin] = true;\r\n  }\r\n\r\n  function removeAdmin (address _admin) onlyOwner() public {\r\n    delete admins[_admin];\r\n  }\r\n\r\n  // Unlocks ERC721 behaviour, allowing for trading on third party platforms.\r\n  function enableERC721 () onlyOwner() public {\r\n    erc721Enabled = true;\r\n  }\r\n\r\n  /* Withdraw */\r\n  /*\r\n    NOTICE: These functions withdraw the developer's cut which is left\r\n    in the contract by `buy`. User funds are immediately sent to the old\r\n    owner in `buy`, no user funds are left in the contract.\r\n  */\r\n  function withdrawAll () onlyOwner() public {\r\n    owner.transfer(this.balance);\r\n  }\r\n\r\n  function withdrawAmount (uint256 _amount) onlyOwner() public {\r\n    owner.transfer(_amount);\r\n  }\r\n\r\n  /* Listing */\r\n  function populateFromItemRegistry (uint256[] _itemIds) onlyOwner() public {\r\n    for (uint256 i = 0; i < _itemIds.length; i++) {\r\n      if (priceOfItem[_itemIds[i]] > 0 || itemRegistry.priceOf(_itemIds[i]) == 0) {\r\n        continue;\r\n      }\r\n\r\n      listItemFromRegistry(_itemIds[i]);\r\n    }\r\n  }\r\n\r\n  function listItemFromRegistry (uint256 _itemId) onlyOwner() public {\r\n    require(itemRegistry != address(0));\r\n    require(itemRegistry.ownerOf(_itemId) != address(0));\r\n    require(itemRegistry.priceOf(_itemId) > 0);\r\n\r\n    uint256 price = itemRegistry.priceOf(_itemId);\r\n    address itemOwner = itemRegistry.ownerOf(_itemId);\r\n    listItem(_itemId, price, itemOwner);\r\n  }\r\n\r\n  function listMultipleItems (uint256[] _itemIds, uint256 _price, address _owner) onlyAdmins() external {\r\n    for (uint256 i = 0; i < _itemIds.length; i++) {\r\n      listItem(_itemIds[i], _price, _owner);\r\n    }\r\n  }\r\n\r\n  function listItem (uint256 _itemId, uint256 _price, address _owner) onlyAdmins() public {\r\n    require(_price > 0);\r\n    require(priceOfItem[_itemId] == 0);\r\n    require(ownerOfItem[_itemId] == address(0));\r\n\r\n    ownerOfItem[_itemId] = _owner;\r\n    priceOfItem[_itemId] = _price;\r\n    startingPriceOfItem[_itemId] = _price;\r\n    listedItems.push(_itemId);\r\n  }\r\n\r\n  /* Buying */\r\n  function calculateNextPrice (uint256 _price) public view returns (uint256 _nextPrice) {\r\n    if (_price < increaseLimit1) {\r\n      return _price.mul(200).div(95);\r\n    } else if (_price < increaseLimit2) {\r\n      return _price.mul(135).div(96);\r\n    } else if (_price < increaseLimit3) {\r\n      return _price.mul(125).div(97);\r\n    } else if (_price < increaseLimit4) {\r\n      return _price.mul(117).div(97);\r\n    } else {\r\n      return _price.mul(115).div(98);\r\n    }\r\n  }\r\n\r\n  function calculateDevCut (uint256 _price) public view returns (uint256 _devCut) {\r\n    if (_price < increaseLimit1) {\r\n      return _price.mul(5).div(100); // 5%\r\n    } else if (_price < increaseLimit2) {\r\n      return _price.mul(4).div(100); // 4%\r\n    } else if (_price < increaseLimit3) {\r\n      return _price.mul(3).div(100); // 3%\r\n    } else if (_price < increaseLimit4) {\r\n      return _price.mul(3).div(100); // 3%\r\n    } else {\r\n      return _price.mul(2).div(100); // 2%\r\n    }\r\n  }\r\n\r\n  /*\r\n     Buy a team directly from the contract for the calculated price\r\n     which ensures that the owner gets a profit.  All teams that\r\n     have been listed can be bought by this method. User funds are sent\r\n     directly to the previous owner and are never stored in the contract.\r\n  */\r\n  function buy (uint256 _itemId) payable public {\r\n    require(priceOf(_itemId) > 0);\r\n    require(ownerOf(_itemId) != address(0));\r\n    require(msg.value >= priceOf(_itemId));\r\n    require(ownerOf(_itemId) != msg.sender);\r\n    require(!isContract(msg.sender));\r\n    require(msg.sender != address(0));\r\n\r\n    address oldOwner = ownerOf(_itemId);\r\n    address newOwner = msg.sender;\r\n    uint256 price = priceOf(_itemId);\r\n    uint256 excess = msg.value.sub(price);\r\n\r\n    _transfer(oldOwner, newOwner, _itemId);\r\n    priceOfItem[_itemId] = nextPriceOf(_itemId);\r\n\r\n    Bought(_itemId, newOwner, price);\r\n    Sold(_itemId, oldOwner, price);\r\n\r\n    // Devevloper's cut which is left in contract and accesed by\r\n    // `withdrawAll` and `withdrawAmountTo` methods.\r\n    uint256 devCut = calculateDevCut(price);\r\n\r\n    // Transfer payment to old owner minus the developer's cut.\r\n    oldOwner.transfer(price.sub(devCut));\r\n\r\n    if (excess > 0) {\r\n      newOwner.transfer(excess);\r\n    }\r\n  }\r\n\r\n  /* ERC721 */\r\n  function implementsERC721() public view returns (bool _implements) {\r\n    return erc721Enabled;\r\n  }\r\n\r\n  function name() public pure returns (string _name) {\r\n    return \"Totalgame.io Teams\";\r\n  }\r\n\r\n  function symbol() public pure returns (string _symbol) {\r\n    return \"TGT\";\r\n  }\r\n\r\n  function totalSupply() public view returns (uint256 _totalSupply) {\r\n    return listedItems.length;\r\n  }\r\n\r\n  function balanceOf (address _owner) public view returns (uint256 _balance) {\r\n    uint256 counter = 0;\r\n\r\n    for (uint256 i = 0; i < listedItems.length; i++) {\r\n      if (ownerOf(listedItems[i]) == _owner) {\r\n        counter++;\r\n      }\r\n    }\r\n\r\n    return counter;\r\n  }\r\n\r\n  function ownerOf (uint256 _itemId) public view returns (address _owner) {\r\n    return ownerOfItem[_itemId];\r\n  }\r\n\r\n  function tokensOf (address _owner) public view returns (uint256[] _tokenIds) {\r\n    uint256[] memory items = new uint256[](balanceOf(_owner));\r\n\r\n    uint256 itemCounter = 0;\r\n    for (uint256 i = 0; i < listedItems.length; i++) {\r\n      if (ownerOf(listedItems[i]) == _owner) {\r\n        items[itemCounter] = listedItems[i];\r\n        itemCounter += 1;\r\n      }\r\n    }\r\n\r\n    return items;\r\n  }\r\n\r\n  function tokenExists (uint256 _itemId) public view returns (bool _exists) {\r\n    return priceOf(_itemId) > 0;\r\n  }\r\n\r\n  function approvedFor(uint256 _itemId) public view returns (address _approved) {\r\n    return approvedOfItem[_itemId];\r\n  }\r\n\r\n  function approve(address _to, uint256 _itemId) onlyERC721() public {\r\n    require(msg.sender != _to);\r\n    require(tokenExists(_itemId));\r\n    require(ownerOf(_itemId) == msg.sender);\r\n\r\n    if (_to == 0) {\r\n      if (approvedOfItem[_itemId] != 0) {\r\n        delete approvedOfItem[_itemId];\r\n        Approval(msg.sender, 0, _itemId);\r\n      }\r\n    } else {\r\n      approvedOfItem[_itemId] = _to;\r\n      Approval(msg.sender, _to, _itemId);\r\n    }\r\n  }\r\n\r\n  /* Transferring a team to another owner will entitle the new owner the profits from `buy` */\r\n  function transfer(address _to, uint256 _itemId) onlyERC721() public {\r\n    require(msg.sender == ownerOf(_itemId));\r\n    _transfer(msg.sender, _to, _itemId);\r\n  }\r\n\r\n  function transferFrom(address _from, address _to, uint256 _itemId) onlyERC721() public {\r\n    require(approvedFor(_itemId) == msg.sender);\r\n    _transfer(_from, _to, _itemId);\r\n  }\r\n\r\n  function _transfer(address _from, address _to, uint256 _itemId) internal {\r\n    require(tokenExists(_itemId));\r\n    require(ownerOf(_itemId) == _from);\r\n    require(_to != address(0));\r\n    require(_to != address(this));\r\n\r\n    ownerOfItem[_itemId] = _to;\r\n    approvedOfItem[_itemId] = 0;\r\n\r\n    Transfer(_from, _to, _itemId);\r\n  }\r\n\r\n  /* Read */\r\n  function isAdmin (address _admin) public view returns (bool _isAdmin) {\r\n    return admins[_admin];\r\n  }\r\n\r\n  function startingPriceOf (uint256 _itemId) public view returns (uint256 _startingPrice) {\r\n    return startingPriceOfItem[_itemId];\r\n  }\r\n\r\n  function priceOf (uint256 _itemId) public view returns (uint256 _price) {\r\n    return priceOfItem[_itemId];\r\n  }\r\n\r\n  function nextPriceOf (uint256 _itemId) public view returns (uint256 _nextPrice) {\r\n    return calculateNextPrice(priceOf(_itemId));\r\n  }\r\n\r\n  function allOf (uint256 _itemId) external view returns (uint256 id, address _owner, uint256 _startingPrice, uint256 _price, uint256 _nextPrice) {\r\n    return (_itemId, ownerOf(_itemId), startingPriceOf(_itemId), priceOf(_itemId), nextPriceOf(_itemId));\r\n  }\r\n\r\n  function itemsForSaleLimit (uint256 _from, uint256 _take) public view returns (uint256[] _items) {\r\n    uint256[] memory items = new uint256[](_take);\r\n\r\n    for (uint256 i = 0; i < _take; i++) {\r\n      items[i] = listedItems[_from + i];\r\n    }\r\n\r\n    return items;\r\n  }\r\n\r\n  /* Util */\r\n  function isContract(address addr) internal view returns (bool) {\r\n    uint size;\r\n    assembly { size := extcodesize(addr) } // solium-disable-line\r\n    return size > 0;\r\n  }\r\n}\r\n\r\ninterface IItemRegistry {\r\n  function itemsForSaleLimit (uint256 _from, uint256 _take) public view returns (uint256[] _items);\r\n  function ownerOf (uint256 _itemId) public view returns (address _owner);\r\n  function priceOf (uint256 _itemId) public view returns (uint256 _price);\r\n}\r\n",
  "sourcePath": "D:\\projects\\others\\blockchain\\ETH\\petshop\\contracts\\ItemToken.sol",
  "compiler": {
    "name": "solc",
    "version": "0.4.21+commit.dfe3193c.Emscripten.clang"
  },
  "schemaVersion": "2.0.0",
  "updatedAt": "2018-05-08T02:50:06.881Z"
}