{
  "contractName": "TTGCoin",
  "abi": [
    {
      "constant": false,
      "inputs": [
        {
          "name": "addr",
          "type": "address"
        },
        {
          "name": "state",
          "type": "bool"
        }
      ],
      "name": "setTransferAgent",
      "outputs": [],
      "payable": false,
      "stateMutability": "nonpayable",
      "type": "function"
    },
    {
      "constant": false,
      "inputs": [
        {
          "name": "_amount",
          "type": "uint256"
        }
      ],
      "name": "withdrawAmount",
      "outputs": [],
      "payable": false,
      "stateMutability": "nonpayable",
      "type": "function"
    },
    {
      "constant": true,
      "inputs": [],
      "name": "mintingFinished",
      "outputs": [
        {
          "name": "",
          "type": "bool"
        }
      ],
      "payable": false,
      "stateMutability": "view",
      "type": "function"
    },
    {
      "constant": true,
      "inputs": [],
      "name": "name",
      "outputs": [
        {
          "name": "",
          "type": "string"
        }
      ],
      "payable": false,
      "stateMutability": "view",
      "type": "function"
    },
    {
      "constant": false,
      "inputs": [
        {
          "name": "_spender",
          "type": "address"
        },
        {
          "name": "_value",
          "type": "uint256"
        }
      ],
      "name": "approve",
      "outputs": [
        {
          "name": "success",
          "type": "bool"
        }
      ],
      "payable": false,
      "stateMutability": "nonpayable",
      "type": "function"
    },
    {
      "constant": false,
      "inputs": [
        {
          "name": "_found",
          "type": "address"
        }
      ],
      "name": "addFound",
      "outputs": [],
      "payable": false,
      "stateMutability": "nonpayable",
      "type": "function"
    },
    {
      "constant": false,
      "inputs": [
        {
          "name": "receiver",
          "type": "address"
        },
        {
          "name": "amount",
          "type": "uint256"
        }
      ],
      "name": "distributeToDev",
      "outputs": [
        {
          "name": "actual",
          "type": "uint256"
        }
      ],
      "payable": false,
      "stateMutability": "nonpayable",
      "type": "function"
    },
    {
      "constant": false,
      "inputs": [
        {
          "name": "dev",
          "type": "uint256"
        },
        {
          "name": "found",
          "type": "uint256"
        },
        {
          "name": "other",
          "type": "uint256"
        }
      ],
      "name": "setMaxTranferLimit",
      "outputs": [],
      "payable": false,
      "stateMutability": "nonpayable",
      "type": "function"
    },
    {
      "constant": false,
      "inputs": [
        {
          "name": "_admin",
          "type": "address"
        }
      ],
      "name": "removeAdmin",
      "outputs": [],
      "payable": false,
      "stateMutability": "nonpayable",
      "type": "function"
    },
    {
      "constant": true,
      "inputs": [],
      "name": "totalSupply",
      "outputs": [
        {
          "name": "",
          "type": "uint256"
        }
      ],
      "payable": false,
      "stateMutability": "view",
      "type": "function"
    },
    {
      "constant": false,
      "inputs": [
        {
          "name": "receiver",
          "type": "address"
        },
        {
          "name": "amount",
          "type": "uint256"
        }
      ],
      "name": "distributeToFound",
      "outputs": [
        {
          "name": "actual",
          "type": "uint256"
        }
      ],
      "payable": false,
      "stateMutability": "nonpayable",
      "type": "function"
    },
    {
      "constant": false,
      "inputs": [
        {
          "name": "_dev",
          "type": "address"
        }
      ],
      "name": "addDeveloper",
      "outputs": [],
      "payable": false,
      "stateMutability": "nonpayable",
      "type": "function"
    },
    {
      "constant": false,
      "inputs": [
        {
          "name": "_from",
          "type": "address"
        },
        {
          "name": "_to",
          "type": "address"
        },
        {
          "name": "_value",
          "type": "uint256"
        }
      ],
      "name": "transferFrom",
      "outputs": [
        {
          "name": "success",
          "type": "bool"
        }
      ],
      "payable": false,
      "stateMutability": "nonpayable",
      "type": "function"
    },
    {
      "constant": false,
      "inputs": [
        {
          "name": "addr",
          "type": "address"
        }
      ],
      "name": "setReleaseAgent",
      "outputs": [],
      "payable": false,
      "stateMutability": "nonpayable",
      "type": "function"
    },
    {
      "constant": true,
      "inputs": [],
      "name": "decimals",
      "outputs": [
        {
          "name": "",
          "type": "uint256"
        }
      ],
      "payable": false,
      "stateMutability": "view",
      "type": "function"
    },
    {
      "constant": false,
      "inputs": [
        {
          "name": "transmitter",
          "type": "address"
        },
        {
          "name": "receiver",
          "type": "address"
        },
        {
          "name": "amount",
          "type": "uint256"
        }
      ],
      "name": "airDrop",
      "outputs": [
        {
          "name": "actual",
          "type": "uint256"
        }
      ],
      "payable": false,
      "stateMutability": "nonpayable",
      "type": "function"
    },
    {
      "constant": true,
      "inputs": [],
      "name": "havedDistFoundCoin",
      "outputs": [
        {
          "name": "",
          "type": "uint256"
        }
      ],
      "payable": false,
      "stateMutability": "view",
      "type": "function"
    },
    {
      "constant": false,
      "inputs": [
        {
          "name": "receiver",
          "type": "address"
        },
        {
          "name": "amount",
          "type": "uint256"
        }
      ],
      "name": "mint",
      "outputs": [],
      "payable": false,
      "stateMutability": "nonpayable",
      "type": "function"
    },
    {
      "constant": true,
      "inputs": [
        {
          "name": "",
          "type": "address"
        }
      ],
      "name": "mintAgents",
      "outputs": [
        {
          "name": "",
          "type": "bool"
        }
      ],
      "payable": false,
      "stateMutability": "view",
      "type": "function"
    },
    {
      "constant": false,
      "inputs": [
        {
          "name": "addr",
          "type": "address"
        },
        {
          "name": "state",
          "type": "bool"
        }
      ],
      "name": "setMintAgent",
      "outputs": [],
      "payable": false,
      "stateMutability": "nonpayable",
      "type": "function"
    },
    {
      "constant": false,
      "inputs": [],
      "name": "enableMint",
      "outputs": [],
      "payable": false,
      "stateMutability": "nonpayable",
      "type": "function"
    },
    {
      "constant": false,
      "inputs": [],
      "name": "crowdDistribution",
      "outputs": [
        {
          "name": "actual",
          "type": "uint256"
        }
      ],
      "payable": true,
      "stateMutability": "payable",
      "type": "function"
    },
    {
      "constant": true,
      "inputs": [],
      "name": "havedAirDrop",
      "outputs": [
        {
          "name": "",
          "type": "uint256"
        }
      ],
      "payable": false,
      "stateMutability": "view",
      "type": "function"
    },
    {
      "constant": false,
      "inputs": [
        {
          "name": "from",
          "type": "address"
        },
        {
          "name": "amount",
          "type": "uint256"
        }
      ],
      "name": "recycle",
      "outputs": [],
      "payable": false,
      "stateMutability": "nonpayable",
      "type": "function"
    },
    {
      "constant": true,
      "inputs": [],
      "name": "totalCrowdCoin",
      "outputs": [
        {
          "name": "",
          "type": "uint256"
        }
      ],
      "payable": false,
      "stateMutability": "view",
      "type": "function"
    },
    {
      "constant": false,
      "inputs": [
        {
          "name": "_admin",
          "type": "address"
        }
      ],
      "name": "addAdmin",
      "outputs": [],
      "payable": false,
      "stateMutability": "nonpayable",
      "type": "function"
    },
    {
      "constant": true,
      "inputs": [
        {
          "name": "_owner",
          "type": "address"
        }
      ],
      "name": "balanceOf",
      "outputs": [
        {
          "name": "balance",
          "type": "uint256"
        }
      ],
      "payable": false,
      "stateMutability": "view",
      "type": "function"
    },
    {
      "constant": true,
      "inputs": [],
      "name": "distAgent",
      "outputs": [
        {
          "name": "",
          "type": "address"
        }
      ],
      "payable": false,
      "stateMutability": "view",
      "type": "function"
    },
    {
      "constant": false,
      "inputs": [],
      "name": "withdrawAll",
      "outputs": [],
      "payable": false,
      "stateMutability": "nonpayable",
      "type": "function"
    },
    {
      "constant": true,
      "inputs": [
        {
          "name": "",
          "type": "address"
        }
      ],
      "name": "transferAgents",
      "outputs": [
        {
          "name": "",
          "type": "bool"
        }
      ],
      "payable": false,
      "stateMutability": "view",
      "type": "function"
    },
    {
      "constant": true,
      "inputs": [],
      "name": "getOwner",
      "outputs": [
        {
          "name": "",
          "type": "address"
        }
      ],
      "payable": false,
      "stateMutability": "view",
      "type": "function"
    },
    {
      "constant": true,
      "inputs": [],
      "name": "havedDistDevCoin",
      "outputs": [
        {
          "name": "",
          "type": "uint256"
        }
      ],
      "payable": false,
      "stateMutability": "view",
      "type": "function"
    },
    {
      "constant": true,
      "inputs": [],
      "name": "owner",
      "outputs": [
        {
          "name": "",
          "type": "address"
        }
      ],
      "payable": false,
      "stateMutability": "view",
      "type": "function"
    },
    {
      "constant": true,
      "inputs": [],
      "name": "totalFoundCoin",
      "outputs": [
        {
          "name": "",
          "type": "uint256"
        }
      ],
      "payable": false,
      "stateMutability": "view",
      "type": "function"
    },
    {
      "constant": true,
      "inputs": [],
      "name": "symbol",
      "outputs": [
        {
          "name": "",
          "type": "string"
        }
      ],
      "payable": false,
      "stateMutability": "view",
      "type": "function"
    },
    {
      "constant": true,
      "inputs": [],
      "name": "released",
      "outputs": [
        {
          "name": "",
          "type": "bool"
        }
      ],
      "payable": false,
      "stateMutability": "view",
      "type": "function"
    },
    {
      "constant": false,
      "inputs": [
        {
          "name": "_dev",
          "type": "address"
        }
      ],
      "name": "removeDeveloper",
      "outputs": [],
      "payable": false,
      "stateMutability": "nonpayable",
      "type": "function"
    },
    {
      "constant": true,
      "inputs": [],
      "name": "finishCrowdCoin",
      "outputs": [
        {
          "name": "",
          "type": "bool"
        }
      ],
      "payable": false,
      "stateMutability": "view",
      "type": "function"
    },
    {
      "constant": false,
      "inputs": [
        {
          "name": "_to",
          "type": "address"
        },
        {
          "name": "_value",
          "type": "uint256"
        }
      ],
      "name": "transfer",
      "outputs": [
        {
          "name": "success",
          "type": "bool"
        }
      ],
      "payable": false,
      "stateMutability": "nonpayable",
      "type": "function"
    },
    {
      "constant": true,
      "inputs": [],
      "name": "havedCrowdCoin",
      "outputs": [
        {
          "name": "",
          "type": "uint256"
        }
      ],
      "payable": false,
      "stateMutability": "view",
      "type": "function"
    },
    {
      "constant": false,
      "inputs": [
        {
          "name": "addr",
          "type": "address"
        }
      ],
      "name": "setDistributeAgent",
      "outputs": [],
      "payable": false,
      "stateMutability": "nonpayable",
      "type": "function"
    },
    {
      "constant": true,
      "inputs": [],
      "name": "totalDevCoin",
      "outputs": [
        {
          "name": "",
          "type": "uint256"
        }
      ],
      "payable": false,
      "stateMutability": "view",
      "type": "function"
    },
    {
      "constant": true,
      "inputs": [],
      "name": "maxAirDrop",
      "outputs": [
        {
          "name": "",
          "type": "uint256"
        }
      ],
      "payable": false,
      "stateMutability": "view",
      "type": "function"
    },
    {
      "constant": true,
      "inputs": [],
      "name": "releaseAgent",
      "outputs": [
        {
          "name": "",
          "type": "address"
        }
      ],
      "payable": false,
      "stateMutability": "view",
      "type": "function"
    },
    {
      "constant": false,
      "inputs": [
        {
          "name": "_found",
          "type": "address"
        }
      ],
      "name": "removeFound",
      "outputs": [],
      "payable": false,
      "stateMutability": "nonpayable",
      "type": "function"
    },
    {
      "constant": true,
      "inputs": [
        {
          "name": "_owner",
          "type": "address"
        },
        {
          "name": "_spender",
          "type": "address"
        }
      ],
      "name": "allowance",
      "outputs": [
        {
          "name": "remaining",
          "type": "uint256"
        }
      ],
      "payable": false,
      "stateMutability": "view",
      "type": "function"
    },
    {
      "constant": true,
      "inputs": [],
      "name": "isToken",
      "outputs": [
        {
          "name": "weAre",
          "type": "bool"
        }
      ],
      "payable": false,
      "stateMutability": "pure",
      "type": "function"
    },
    {
      "constant": false,
      "inputs": [
        {
          "name": "newOwner",
          "type": "address"
        }
      ],
      "name": "transferOwnership",
      "outputs": [],
      "payable": false,
      "stateMutability": "nonpayable",
      "type": "function"
    },
    {
      "constant": true,
      "inputs": [],
      "name": "totalAirDrop",
      "outputs": [
        {
          "name": "",
          "type": "uint256"
        }
      ],
      "payable": false,
      "stateMutability": "view",
      "type": "function"
    },
    {
      "inputs": [],
      "payable": false,
      "stateMutability": "nonpayable",
      "type": "constructor"
    },
    {
      "anonymous": false,
      "inputs": [
        {
          "indexed": false,
          "name": "newName",
          "type": "string"
        },
        {
          "indexed": false,
          "name": "newSymbol",
          "type": "string"
        }
      ],
      "name": "UpdatedTokenInformation",
      "type": "event"
    },
    {
      "anonymous": false,
      "inputs": [
        {
          "indexed": false,
          "name": "from",
          "type": "address"
        },
        {
          "indexed": false,
          "name": "to",
          "type": "address"
        },
        {
          "indexed": false,
          "name": "amount",
          "type": "uint256"
        }
      ],
      "name": "AirDrop",
      "type": "event"
    },
    {
      "anonymous": false,
      "inputs": [
        {
          "indexed": false,
          "name": "from",
          "type": "address"
        },
        {
          "indexed": false,
          "name": "to",
          "type": "address"
        },
        {
          "indexed": false,
          "name": "amount",
          "type": "uint256"
        }
      ],
      "name": "CrowdDistribute",
      "type": "event"
    },
    {
      "anonymous": false,
      "inputs": [
        {
          "indexed": false,
          "name": "addr",
          "type": "address"
        },
        {
          "indexed": false,
          "name": "state",
          "type": "bool"
        }
      ],
      "name": "MintingAgentChanged",
      "type": "event"
    },
    {
      "anonymous": false,
      "inputs": [
        {
          "indexed": false,
          "name": "receiver",
          "type": "address"
        },
        {
          "indexed": false,
          "name": "amount",
          "type": "uint256"
        }
      ],
      "name": "Minted",
      "type": "event"
    },
    {
      "anonymous": false,
      "inputs": [
        {
          "indexed": true,
          "name": "from",
          "type": "address"
        },
        {
          "indexed": true,
          "name": "to",
          "type": "address"
        },
        {
          "indexed": false,
          "name": "value",
          "type": "uint256"
        }
      ],
      "name": "Transfer",
      "type": "event"
    },
    {
      "anonymous": false,
      "inputs": [
        {
          "indexed": true,
          "name": "owner",
          "type": "address"
        },
        {
          "indexed": true,
          "name": "spender",
          "type": "address"
        },
        {
          "indexed": false,
          "name": "value",
          "type": "uint256"
        }
      ],
      "name": "Approval",
      "type": "event"
    },
    {
      "constant": false,
      "inputs": [],
      "name": "releaseTokenTransfer",
      "outputs": [],
      "payable": false,
      "stateMutability": "nonpayable",
      "type": "function"
    },
    {
      "constant": false,
      "inputs": [
        {
          "name": "_name",
          "type": "string"
        },
        {
          "name": "_symbol",
          "type": "string"
        }
      ],
      "name": "setTokenInformation",
      "outputs": [],
      "payable": false,
      "stateMutability": "nonpayable",
      "type": "function"
    },
    {
      "constant": true,
      "inputs": [],
      "name": "getTotalSupply",
      "outputs": [
        {
          "name": "",
          "type": "uint256"
        }
      ],
      "payable": false,
      "stateMutability": "view",
      "type": "function"
    },
    {
      "constant": true,
      "inputs": [],
      "name": "tokenName",
      "outputs": [
        {
          "name": "_name",
          "type": "string"
        }
      ],
      "payable": false,
      "stateMutability": "view",
      "type": "function"
    }
  ],
  "bytecode": "0x60806040526007805460a060020a60ff02191690556a21165458500521280000006008556a108b2a2c280290940000006009556000600a819055600c805460ff19908116909155683635c9adc5dea00000600f55601082905560118290556012805490911690556013819055601481905560158190556016819055601781905560188190556019553480156200009457600080fd5b506003805433600160a060020a031991821681179091161790819055620000cd90600160a060020a031664010000000062000298810204565b60408051808201909152600e8082527f546f74616c47616d6520436f696e00000000000000000000000000000000000060209092019182526200011391601a9162000343565b506040805180820190915260038082527f544743000000000000000000000000000000000000000000000000000000000060209092019182526200015a91601b9162000343565b506b06765c793fa10079d000000060008181556012601c55338152600160208190526040909120829055600c805460ff19169091179055620001c990606490620001b490600a64010000000062001e35620002d482021704565b9064010000000062001e596200030582021704565b601155600054620001f290606490620001b490603264010000000062001e35620002d482021704565b60149081556000546200021b91606491620001b49164010000000062001e35620002d482021704565b6016556000546200024490606490620001b490601464010000000062001e35620002d482021704565b60185560035460005460408051600160a060020a039093168352602083019190915280517f30385c845b448a36257a6a1716e6ad2e1bc2cbe333cde1e69fe849ad6511adfe9281900390910190a1620003e8565b600354600160a060020a03163314620002b057600080fd5b600160a060020a03166000908152600460205260409020805460ff19166001179055565b6000828202831580620002f25750828482811515620002ef57fe5b04145b1515620002fe57600080fd5b9392505050565b6000808083116200031557600080fd5b82848115156200032157fe5b04905082848115156200033057fe5b068184020184141515620002fe57600080fd5b828054600181600116156101000203166002900490600052602060002090601f016020900481019282601f106200038657805160ff1916838001178555620003b6565b82800160010185558215620003b6579182015b82811115620003b657825182559160200191906001019062000399565b50620003c4929150620003c8565b5090565b620003e591905b80821115620003c45760008155600101620003cf565b90565b611f6d80620003f86000396000f30060806040526004361061027c5763ffffffff7c010000000000000000000000000000000000000000000000000000000060003504166302f652a381146102815780630562b9f7146102a957806305d2035b146102c157806306fdde03146102ea578063095ea7b3146103745780630bc311ea146103985780630f67f3f7146103b957806312136918146103ef5780631785f53c1461040d57806318160ddd1461042e578063185917c51461044357806322fbf1e81461046757806323b872dd1461048857806329ff4f53146104b2578063313ce567146104d357806332c0fba5146104e8578063352a482f1461051257806340c10f191461052757806342c1867b1461054b578063432146751461056c57806344b28d59146105925780634eee966f146105a75780634efeb2cf1461063e578063580588a1146106465780635d36d1821461065b5780635f412d4f1461067f5780636c02a931146106945780636e224034146106a957806370480275146106be57806370a08231146106df5780637c1288b514610700578063853828b614610731578063867c285714610746578063893d20e8146107675780638d0d018c1461077c5780638da5cb5b146107915780638fbe382c146107a657806395d89b41146107bb57806396132521146107d05780639e23c209146107e5578063a0cde1f014610806578063a9059cbb1461081b578063a91a39ad1461083f578063b60ffa9c14610854578063b77da4a014610875578063c4e41b221461088a578063ca4a02981461089f578063d1f276d3146108b4578063d3e6dda7146108c9578063dd62ed3e146108ea578063eefa597b14610911578063f2fde38b14610926578063fb6b18c014610947575b600080fd5b34801561028d57600080fd5b506102a7600160a060020a0360043516602435151561095c565b005b3480156102b557600080fd5b506102a76004356109b9565b3480156102cd57600080fd5b506102d6610a0e565b604080519115158252519081900360200190f35b3480156102f657600080fd5b506102ff610a17565b6040805160208082528351818301528351919283929083019185019080838360005b83811015610339578181015183820152602001610321565b50505050905090810190601f1680156103665780820380516001836020036101000a031916815260200191505b509250505060405180910390f35b34801561038057600080fd5b506102d6600160a060020a0360043516602435610aa5565b3480156103a457600080fd5b506102a7600160a060020a0360043516610b49565b3480156103c557600080fd5b506103dd600160a060020a0360043516602435610b84565b60408051918252519081900360200190f35b3480156103fb57600080fd5b506102a7600435602435604435610c80565b34801561041957600080fd5b506102a7600160a060020a0360043516610ccf565b34801561043a57600080fd5b506103dd610d07565b34801561044f57600080fd5b506103dd600160a060020a0360043516602435610d0d565b34801561047357600080fd5b506102a7600160a060020a0360043516610dd4565b34801561049457600080fd5b506102d6600160a060020a0360043581169060243516604435610e0f565b3480156104be57600080fd5b506102a7600160a060020a0360043516610ecb565b3480156104df57600080fd5b506103dd610f2c565b3480156104f457600080fd5b506103dd600160a060020a0360043581169060243516604435610f32565b34801561051e57600080fd5b506103dd611066565b34801561053357600080fd5b506102a7600160a060020a036004351660243561106c565b34801561055757600080fd5b506102d6600160a060020a0360043516611143565b34801561057857600080fd5b506102a7600160a060020a03600435166024351515611158565b34801561059e57600080fd5b506102a76111e3565b3480156105b357600080fd5b506040805160206004803580820135601f81018490048402850184019095528484526102a794369492936024939284019190819084018382808284375050604080516020601f89358b018035918201839004830284018301909452808352979a9998810197919650918201945092508291508401838280828437509497506112069650505050505050565b6103dd611373565b34801561065257600080fd5b506103dd6114ad565b34801561066757600080fd5b506102a7600160a060020a03600435166024356114b3565b34801561068b57600080fd5b506102a76115bb565b3480156106a057600080fd5b506102ff6115dc565b3480156106b557600080fd5b506103dd611673565b3480156106ca57600080fd5b506102a7600160a060020a0360043516611679565b3480156106eb57600080fd5b506103dd600160a060020a03600435166116b4565b34801561070c57600080fd5b506107156116d3565b60408051600160a060020a039092168252519081900360200190f35b34801561073d57600080fd5b506102a76116e2565b34801561075257600080fd5b506102d6600160a060020a0360043516611736565b34801561077357600080fd5b5061071561174b565b34801561078857600080fd5b506103dd61175a565b34801561079d57600080fd5b50610715611760565b3480156107b257600080fd5b506103dd61176f565b3480156107c757600080fd5b506102ff611775565b3480156107dc57600080fd5b506102d66117d0565b3480156107f157600080fd5b506102a7600160a060020a03600435166117e0565b34801561081257600080fd5b506102d6611818565b34801561082757600080fd5b506102d6600160a060020a0360043516602435611821565b34801561084b57600080fd5b506103dd6118d8565b34801561086057600080fd5b506102a7600160a060020a03600435166118de565b34801561088157600080fd5b506103dd611939565b34801561089657600080fd5b506103dd61193f565b3480156108ab57600080fd5b506103dd611945565b3480156108c057600080fd5b5061071561194b565b3480156108d557600080fd5b506102a7600160a060020a036004351661195a565b3480156108f657600080fd5b506103dd600160a060020a0360043581169060243516611992565b34801561091d57600080fd5b506102d66119bd565b34801561093257600080fd5b506102a7600160a060020a03600435166119c2565b34801561095357600080fd5b506103dd611a15565b600354600160a060020a0316331461097357600080fd5b60075460009060a060020a900460ff161561098d57600080fd5b50600160a060020a03919091166000908152600b60205260409020805460ff1916911515919091179055565b600354600160a060020a031633146109d057600080fd5b600354604051600160a060020a039091169082156108fc029083906000818181858888f19350505050158015610a0a573d6000803e3d6000fd5b5050565b600c5460ff1681565b601a805460408051602060026001851615610100026000190190941693909304601f81018490048402820184019092528181529291830182828015610a9d5780601f10610a7257610100808354040283529160200191610a9d565b820191906000526020600020905b815481529060010190602001808311610a8057829003601f168201915b505050505081565b60008115801590610ad85750336000908152600260209081526040808320600160a060020a038716845290915290205415155b15610ae257600080fd5b336000818152600260209081526040808320600160a060020a03881680855290835292819020869055805186815290519293927f8c5be1e5ebec7d5bd14f71427d1e84f3dd0314c0f7b2291e5b200ac8c7c3b925929181900390910190a350600192915050565b600354600160a060020a03163314610b6057600080fd5b600160a060020a03166000908152600660205260409020805460ff19166001179055565b600354600090600160a060020a03163314610b9e57600080fd5b601654601554830110610bb057600080fd5b600354600160a060020a0316600090815260016020526040902054610bdb908363ffffffff611a1b16565b600354600160a060020a039081166000908152600160205260408082209390935590851681522054610c13908363ffffffff611a3016565b600160a060020a038416600090815260016020526040902055601554610c3f908363ffffffff611a3016565b601555610c4b83610dd4565b604080518381529051600160a060020a03851691600091600080516020611f228339815191529181900360200190a350919050565b600354600160a060020a03163314610c9757600080fd5b6000548310610ca557600080fd5b6000548210610cb357600080fd5b6000548110610cc157600080fd5b600892909255600955600a55565b600354600160a060020a03163314610ce657600080fd5b600160a060020a03166000908152600460205260409020805460ff19169055565b60005481565b600354600090600160a060020a03163314610d2757600080fd5b601854601754830110610d3957600080fd5b600354600160a060020a0316600090815260016020526040902054610d64908363ffffffff611a1b16565b600354600160a060020a039081166000908152600160205260408082209390935590851681522054610d9c908363ffffffff611a3016565b600160a060020a038416600090815260016020526040902055601754610dc8908363ffffffff611a3016565b601755610c4b83610b49565b600354600160a060020a03163314610deb57600080fd5b600160a060020a03166000908152600560205260409020805460ff19166001179055565b60035460009084908390600160a060020a03808416911614610eb657610e33611a49565b15610e4b576008548110610e4657600080fd5b610e7c565b610e53611a5f565b15610e66576009548110610e4657600080fd5b600a5415610e7c57600a548110610e7c57600080fd5b60075460a060020a900460ff161515610eb657600160a060020a0382166000908152600b602052604090205460ff161515610eb657600080fd5b610ec1868686611a75565b9695505050505050565b600354600160a060020a03163314610ee257600080fd5b60075460009060a060020a900460ff1615610efc57600080fd5b506007805473ffffffffffffffffffffffffffffffffffffffff1916600160a060020a0392909216919091179055565b601c5481565b6000600160a060020a0383161515610f4957600080fd5b600f54821115610f5857600080fd5b601154601054830110610f6a57600080fd5b600e54600160a060020a03858116911614610f8457600080fd5b600354600160a060020a0316600090815260016020526040902054610faf908363ffffffff611a1b16565b600354600160a060020a039081166000908152600160205260408082209390935590851681522054610fe7908363ffffffff611a3016565b600160a060020a038416600090815260016020526040902055601054611013908363ffffffff611a3016565b6010556040805160008152600160a060020a038516602082015280820184905290517f44347b1aec7858b9ab924df67243a402f4afd5e7d5f045176cde4c521350b88b9181900360600190a15092915050565b60175481565b336000908152600d602052604090205460ff16151561108a57600080fd5b600c5460ff161561109a57600080fd5b600354600160a060020a03166000908152600160205260409020546110c5908263ffffffff611a1b16565b600354600160a060020a0390811660009081526001602052604080822093909355908416815220546110fd908263ffffffff611a3016565b600160a060020a0383166000818152600160209081526040808320949094558351858152935192939192600080516020611f228339815191529281900390910190a35050565b600d6020526000908152604090205460ff1681565b600354600160a060020a0316331461116f57600080fd5b600c5460ff161561117f57600080fd5b600160a060020a0382166000818152600d6020908152604091829020805460ff191685151590811790915582519384529083015280517f4b0adf6c802794c7dde28a08a4e07131abcff3bf9603cd71f14f90bec7865efa9281900390910190a15050565b600354600160a060020a031633146111fa57600080fd5b600c805460ff19169055565b600354600160a060020a0316331461121d57600080fd5b815161123090601a906020850190611e93565b50805161124490601b906020840190611e93565b5060408051818152601a8054600260001961010060018416150201909116049282018390527fd131ab1e6f279deea74e13a18477e13e2107deb6dc8ae955648948be5841fb46929091601b91819060208201906060830190869080156112eb5780601f106112c0576101008083540402835291602001916112eb565b820191906000526020600020905b8154815290600101906020018083116112ce57829003601f168201915b505083810382528454600260001961010060018416150201909116048082526020909101908590801561135f5780601f106113345761010080835404028352916020019161135f565b820191906000526020600020905b81548152906001019060200180831161134257829003601f168201915b505094505050505060405180910390a15050565b60008033151561138257600080fd5b61138b33611b83565b1561139557600080fd5b3415156113a157600080fd5b601354601454116113b157600080fd5b60125460ff16156113c157600080fd5b6113ca34611b8b565b90508015156113d857600080fd5b6013546113eb908263ffffffff611a3016565b601355600354600160a060020a0316600090815260016020526040902054611419908263ffffffff611a1b16565b600354600160a060020a031660009081526001602052604080822092909255338152205461144d908263ffffffff611a3016565b33600090815260016020526040902055611465611c2d565b604080516000815233602082015280820183905290517f0dd4c9ffc7228ed4c6bef4371026f1539b2ab7fda1670bd62174406b068e04179181900360600190a18091505b5090565b60105481565b3360009081526004602052604090205460ff1615156114d157600080fd5b600160a060020a03821615156114e657600080fd5b600160a060020a03821660009081526001602052604090205481111561150b57600080fd5b600354600160a060020a0316600090815260016020526040902054611536908263ffffffff611d3416565b600354600160a060020a03908116600090815260016020526040808220939093559084168152205461156e908263ffffffff611a1b16565b600160a060020a0380841660008181526001602090815260409182902094909455600354815186815291519316939192600080516020611f22833981519152929181900390910190a35050565b600754600160a060020a031633146115d257600080fd5b6115da611d54565b565b601a8054604080516020601f60026000196101006001881615020190951694909404938401819004810282018101909252828152606093909290918301828280156116685780601f1061163d57610100808354040283529160200191611668565b820191906000526020600020905b81548152906001019060200180831161164b57829003601f168201915b505050505090505b90565b60145481565b600354600160a060020a0316331461169057600080fd5b600160a060020a03166000908152600460205260409020805460ff19166001179055565b600160a060020a0381166000908152600160205260409020545b919050565b600e54600160a060020a031681565b600354600160a060020a031633146116f957600080fd5b600354604051600160a060020a0390911690303180156108fc02916000818181858888f19350505050158015611733573d6000803e3d6000fd5b50565b600b6020526000908152604090205460ff1681565b600354600160a060020a031690565b60155481565b600354600160a060020a031681565b60185481565b601b805460408051602060026001851615610100026000190190941693909304601f81018490048402820184019092528181529291830182828015610a9d5780601f10610a7257610100808354040283529160200191610a9d565b60075460a060020a900460ff1681565b600354600160a060020a031633146117f757600080fd5b600160a060020a03166000908152600560205260409020805460ff19169055565b60125460ff1681565b60035460009033908390600160a060020a031682146118c557611842611a49565b1561185a57600854811061185557600080fd5b61188b565b611862611a5f565b1561187557600954811061185557600080fd5b600a541561188b57600a54811061188b57600080fd5b60075460a060020a900460ff1615156118c557600160a060020a0382166000908152600b602052604090205460ff1615156118c557600080fd5b6118cf8585611d91565b95945050505050565b60135481565b600354600160a060020a031633146118f557600080fd5b600160a060020a038116151561190a57600080fd5b600e805473ffffffffffffffffffffffffffffffffffffffff1916600160a060020a0392909216919091179055565b60165481565b60005490565b600f5481565b600754600160a060020a031681565b600354600160a060020a0316331461197157600080fd5b600160a060020a03166000908152600660205260409020805460ff19169055565b600160a060020a03918216600090815260026020908152604080832093909416825291909152205490565b600190565b600354600160a060020a031633146119d957600080fd5b600160a060020a038116156117335760038054600160a060020a03831673ffffffffffffffffffffffffffffffffffffffff1990911617905550565b60115481565b600082821115611a2a57600080fd5b50900390565b600082820183811015611a4257600080fd5b9392505050565b3360009081526005602052604090205460ff1690565b3360009081526006602052604090205460ff1690565b600160a060020a038316600090815260026020908152604080832033845290915281205482811015611aa657600080fd5b6000831015611ab457600080fd5b600160a060020a038416600090815260016020526040902054611ad79084611d34565b600160a060020a038086166000908152600160205260408082209390935590871681522054611b069084611a1b565b600160a060020a038616600090815260016020526040902055611b298184611a1b565b600160a060020a0380871660008181526002602090815260408083203384528252918290209490945580518781529051928816939192600080516020611f22833981519152929181900390910190a3506001949350505050565b6000903b1190565b600060195460001415611bb157611baa8261c35063ffffffff611e3516565b90506116ce565b60195460011415611bce57611baa8261753063ffffffff611e3516565b60195460021415611beb57611baa82614e2063ffffffff611e3516565b60195460031415611c0857611baa82613a9863ffffffff611e3516565b60195460041415611c2557611baa8261271063ffffffff611e3516565b506000919050565b611c546064611c48600a601454611e3590919063ffffffff16565b9063ffffffff611e5916565b6013541015611c67576000601955611d1a565b611c816064611c4860148054611e3590919063ffffffff16565b6013541015611c94576001601955611d1a565b611caf6064611c48601e601454611e3590919063ffffffff16565b6013541015611cc2576002601955611d1a565b611cdd6064611c486028601454611e3590919063ffffffff16565b6013541015611cf0576003601955611d1a565b611d0b6064611c486032601454611e3590919063ffffffff16565b6013541015611d1a5760046019555b601454601354106115da576012805460ff19166001179055565b6000828201838110801590611d495750828110155b1515611a4257600080fd5b600754600160a060020a03163314611d6b57600080fd5b6007805474ff0000000000000000000000000000000000000000191660a060020a179055565b6000604081831015611da257600080fd5b33600090815260016020526040902054611dbc9084611a1b565b3360009081526001602052604080822092909255600160a060020a03861681522054611de89084611d34565b600160a060020a038516600081815260016020908152604091829020939093558051868152905191923392600080516020611f228339815191529281900390910190a35060019392505050565b6000828202831580611d495750828482811515611e4e57fe5b0414611a4257600080fd5b600080808311611e6857600080fd5b8284811515611e7357fe5b0490508284811515611e8157fe5b068184020184141515611a4257600080fd5b828054600181600116156101000203166002900490600052602060002090601f016020900481019282601f10611ed457805160ff1916838001178555611f01565b82800160010185558215611f01579182015b82811115611f01578251825591602001919060010190611ee6565b506114a9926116709250905b808211156114a95760008155600101611f0d5600ddf252ad1be2c89b69c2b068fc378daa952ba7f163c4a11628f55a4df523b3efa165627a7a72305820323240ff9b27fd9ceea351e50ac3b09362575bd4588e38a5b0d595a973a4e3740029",
  "source": "pragma solidity ^0.4.2;\n\n//import \"./SafeMathLib.sol\";\n/**\n * Safe unsigned safe math.\n *\n * https://blog.aragon.one/library-driven-development-in-solidity-2bebcaf88736#.750gwtwli\n *\n * Originally from https://raw.githubusercontent.com/AragonOne/zeppelin-solidity/master/contracts/SafeMathLib.sol\n *\n * Maintained here until merged to mainline zeppelin-solidity.\n *\n */\nlibrary SafeMathLib {\n\n  function times(uint a, uint b) internal pure returns (uint) {\n    uint c = a * b;\n    require(a == 0 || c / a == b);\n    return c;\n  }\n\n  function minus(uint a, uint b) internal pure returns (uint) {\n    require(b <= a);\n    return a - b;\n  }\n\n  function plus(uint a, uint b) internal pure returns (uint) {\n    uint c = a + b;\n    require(c>=a);\n    return c;\n  }\n  function mul(uint a, uint b) internal pure returns (uint) {\n    uint c = a * b;\n    require(a == 0 || c / a == b);\n    return c;\n  }\n\n  function div(uint a, uint b) internal pure returns (uint) {\n    require(b > 0);\n    uint c = a / b;\n    require(a == b * c + a % b);\n    return c;\n  }\n\n  function sub(uint a, uint b) internal pure returns (uint) {\n    require(b <= a);\n    return a - b;\n  }\n\n  function add(uint a, uint b) internal pure returns (uint) {\n    uint c = a + b;\n    require(c>=a && c>=b);\n    return c;\n  }\n\n}\n\n/*\n * ERC20 interface\n * see https://github.com/ethereum/EIPs/issues/20\n */\ncontract ERC20 {\n  uint public totalSupply;\n  function balanceOf(address who) public constant returns (uint);\n  function allowance(address owner, address spender) public constant returns (uint);\n\n  function transfer(address to, uint value) public  returns (bool ok);\n  function transferFrom(address from, address to, uint value) public returns (bool ok);\n  function approve(address spender, uint value) public returns (bool ok);\n   event Transfer(address indexed from, address indexed to, uint value);\n   event Approval(address indexed owner, address indexed spender, uint value);\n}\n\n\n\n/**\n * Math operations with safety checks\n */\ncontract SafeMath {\n  function safeMul(uint a, uint b) internal pure returns (uint) {\n    uint c = a * b;\n    require(a == 0 || c / a == b);\n    return c;\n  }\n\n  function safeDiv(uint a, uint b) internal pure returns (uint) {\n    assert(b > 0);\n    uint c = a / b;\n    require(a == b * c + a % b);\n    return c;\n  }\n\n  function safeSub(uint a, uint b) internal pure returns (uint) {\n    require(b <= a);\n    return a - b;\n  }\n\n  function safeAdd(uint a, uint b) internal pure returns (uint) {\n    uint c = a + b;\n    require(c>=a && c>=b);\n    return c;\n  }\n\n  function max64(uint64 a, uint64 b) internal  pure returns (uint64) {\n    return a >= b ? a : b;\n  }\n\n  function min64(uint64 a, uint64 b) internal  pure returns (uint64) {\n    return a < b ? a : b;\n  }\n\n  function max256(uint256 a, uint256 b) internal  pure returns (uint256) {\n    return a >= b ? a : b;\n  }\n\n  function min256(uint256 a, uint256 b) internal pure returns (uint256) {\n    return a < b ? a : b;\n  }\n\n  //function assert(bool assertion) internal pure{\n  //  require (assertion);\n  //}\n}\n\n\n\n/**\n * Standard ERC20 token with Short Hand Attack and approve() race condition mitigation.\n *\n * Based on code by FirstBlood:\n * https://github.com/Firstbloodio/token/blob/master/smart_contract/FirstBloodToken.sol\n */\ncontract StandardToken is ERC20, SafeMath {\n\n  /* Token supply got increased and a new owner received these tokens */\n   event Minted(address receiver, uint amount);\n\n  /* Actual balances of token holders */\n  mapping(address => uint) balances;\n\n  /* approve() allowances */\n  mapping (address => mapping (address => uint)) allowed;\n\n  /* Interface declaration */\n  function isToken() public pure returns (bool weAre) {\n    return true;\n  }\n\n  /**\n   *\n   * Fix for the ERC20 short address attack\n   *\n   * http://vessenes.com/the-erc20-short-address-attack-explained/\n   */\n  modifier onlyPayloadSize(uint size) {\n     //require(msg.data.length < size + 4);\n     _;\n  }\n\n  function transfer(address _to, uint _value) public onlyPayloadSize(2 * 32) returns (bool success) {\n    require(_value >= 0);\n    balances[msg.sender] = safeSub(balances[msg.sender], _value);\n    balances[_to] = safeAdd(balances[_to], _value);\n    emit Transfer(msg.sender, _to, _value);\n    return true;\n  }\n\n  function transferFrom(address _from, address _to, uint _value) public returns (bool success) {\n    uint _allowance = allowed[_from][msg.sender];\n\n    //requre the alloced greater than _value\n    require(_allowance >= _value);\n    require(_value >= 0);\n\n    balances[_to] = safeAdd(balances[_to], _value);\n    balances[_from] = safeSub(balances[_from], _value);\n    allowed[_from][msg.sender] = safeSub(_allowance, _value);\n    emit Transfer(_from, _to, _value);\n    return true;\n  }\n\n  function balanceOf(address _owner) public view returns (uint balance) {\n    return balances[_owner];\n  }\n\n  function approve(address _spender, uint _value)public returns (bool success) {\n\n    // To change the approve amount you first have to reduce the addresses`\n    //  allowance to zero by calling `approve(_spender, 0)` if it is not\n    //  already 0 to mitigate the race condition described here:\n    //  https://github.com/ethereum/EIPs/issues/20#issuecomment-263524729\n    //if ((_value != 0) && (allowed[msg.sender][_spender] != 0)) throw;\n    require(!((_value != 0) && (allowed[msg.sender][_spender] != 0)));\n\n    allowed[msg.sender][_spender] = _value;\n    emit Approval(msg.sender, _spender, _value);\n    return true;\n  }\n\n  function allowance(address _owner, address _spender) public constant returns (uint remaining) {\n    return allowed[_owner][_spender];\n  }\n\n  /* Util */\n  function isContract(address addr) internal view returns (bool) {\n    uint size;\n    assembly { size := extcodesize(addr) } // solium-disable-line\n    return size > 0;\n  }\n}\n\n\n\n/*\n * Ownable\n *\n * Base contract with an owner.\n * Provides onlyOwner modifier, which prevents function from running if it is called by anyone other than the owner.\n */\ncontract Ownable {\n  address public owner;\n  mapping (address => bool) private admins;\n  mapping (address => bool) private developers;\n  mapping (address => bool) private founds;\n\n  function Ownable()  internal{\n    owner = msg.sender;\n  }\n\n  modifier onlyAdmins(){\n    require(admins[msg.sender]);\n    _;\n  }\n\n  modifier onlyOwner()  {\n    require (msg.sender == owner);\n    _;\n  }\n\n function getOwner() view public returns (address){\n     return owner;\n  }\n\n function isDeveloper () view internal returns (bool) {\n     return developers[msg.sender];\n  }\n\n function isFounder () view internal returns (bool){\n     return founds[msg.sender];\n  }\n\n  function addDeveloper (address _dev) onlyOwner() public {\n    developers[_dev] = true;\n  }\n\n  function removeDeveloper (address _dev) onlyOwner() public {\n    delete developers[_dev];\n  }\n\n    function addFound (address _found) onlyOwner() public {\n    founds[_found] = true;\n  }\n\n  function removeFound (address _found) onlyOwner() public {\n    delete founds[_found];\n  }\n\n  function addAdmin (address _admin) onlyOwner() public {\n    admins[_admin] = true;\n  }\n\n  function removeAdmin (address _admin) onlyOwner() public {\n    delete admins[_admin];\n  }\n  \n  function transferOwnership(address newOwner) onlyOwner public {\n    if (newOwner != address(0)) {\n      owner = newOwner;\n    }\n  }\n}\n\n/**\n * Define interface for distrible the token \n */\ncontract DistributeToken is StandardToken, Ownable{\n\n  event AirDrop(address from, address to, uint amount);\n  event CrowdDistribute(address from, address to, uint amount);\n\n  using SafeMathLib for uint;\n\n  /* The finalizer contract that allows Distribute token */\n  address public distAgent;\n\n  uint public maxAirDrop = 1000*10**18;//need below 1000 TTG\n\n  uint public havedAirDrop = 0;\n  uint public totalAirDrop = 0; //totalSupply * 5%\n\n  bool public finishCrowdCoin = false;\n  uint public havedCrowdCoin = 0;\n  uint public totalCrowdCoin = 0; //totalSupply * 50%\n\n  uint public havedDistDevCoin = 0;\n  uint public totalDevCoin = 0;  //totalSupply * 20%\n\n  uint public havedDistFoundCoin = 0;\n  uint public totalFoundCoin = 0;  //totalSupply * 20%\n\n  /**\n   * 011000001150000 2125000  3112500  4112500\n   */\n  uint private crowState = 0;//\n  /**\n   * .\n   */\n  function setDistributeAgent(address addr) onlyOwner  public {\n     \n     require(addr != address(0));\n\n    // We don't do interface check here as we might want to a normal wallet address to act as a release agent\n    distAgent = addr;\n  }\n\n\n  /** The function can be called only by a whitelisted release agent. */\n  modifier onlyDistributeAgent() {\n    require(msg.sender == distAgent) ;\n    _;\n  }\n\n  /* Withdraw */\n  /*\n    NOTICE: These functions withdraw the ETH which remained in the contract account when user call CrowdDistribute\n  */\n  function withdrawAll () onlyOwner() public {\n    owner.transfer(this.balance);\n  }\n\n  function withdrawAmount (uint256 _amount) onlyOwner() public {\n    owner.transfer(_amount);\n  }\n\n /**token*/\n function distributeToFound(address receiver, uint amount) onlyOwner() public  returns (uint actual){ \n  \n    require((amount+havedDistFoundCoin) < totalFoundCoin);\n  \n    balances[owner] = balances[owner].sub(amount);\n    balances[receiver] = balances[receiver].plus(amount);\n    havedDistFoundCoin = havedDistFoundCoin.plus(amount);\n\n    addFound(receiver);\n\n    // This will make the mint transaction apper in EtherScan.io\n    // We can remove this after there is a standardized minting event\n    emit Transfer(0, receiver, amount);\n   \n    return amount;\n }\n\n /**token*/\n function  distributeToDev(address receiver, uint amount) onlyOwner()  public  returns (uint actual){\n\n    require((amount+havedDistDevCoin) < totalDevCoin);\n\n    balances[owner] = balances[owner].sub(amount);\n    balances[receiver] = balances[receiver].plus(amount);\n    havedDistDevCoin = havedDistDevCoin.plus(amount);\n\n    addDeveloper(receiver);\n    // This will make the mint transaction apper in EtherScan.io\n    // We can remove this after there is a standardized minting event\n    emit Transfer(0, receiver, amount);\n\n    return amount;\n }\n\n /** agentagent*/\n function airDrop(address transmitter, address receiver, uint amount) public  returns (uint actual){\n\n    require(receiver != address(0));\n    require(amount <= maxAirDrop);\n    require((amount+havedAirDrop) < totalAirDrop);\n    require(transmitter == distAgent);\n\n    balances[owner] = balances[owner].sub(amount);\n    balances[receiver] = balances[receiver].plus(amount);\n    havedAirDrop = havedAirDrop.plus(amount);\n\n    // This will make the mint transaction apper in EtherScan.io\n    // We can remove this after there is a standardized minting event\n    emit AirDrop(0, receiver, amount);\n\n    return amount;\n  }\n\n /**ICOETHTTGICO*/\n function crowdDistribution() payable public  returns (uint actual) {\n      \n    require(msg.sender != address(0));\n    require(!isContract(msg.sender));\n    require(msg.value != 0);\n    require(totalCrowdCoin > havedCrowdCoin);\n    require(finishCrowdCoin == false);\n    \n    uint actualAmount = calculateCrowdAmount(msg.value);\n\n    require(actualAmount != 0);\n\n    havedCrowdCoin = havedCrowdCoin.plus(actualAmount);\n    balances[owner] = balances[owner].sub(actualAmount);\n    balances[msg.sender] = balances[msg.sender].plus(actualAmount);\n    \n    switchCrowdState();\n    \n    // This will make the mint transaction apper in EtherScan.io\n    // We can remove this after there is a standardized minting event\n    emit CrowdDistribute(0, msg.sender, actualAmount);\n\n    return actualAmount;\n  }\n\n function  switchCrowdState () internal{\n\n    if (havedCrowdCoin < totalCrowdCoin.mul(10).div(100) ){\n       crowState = 0;\n\n    }else  if (havedCrowdCoin < totalCrowdCoin.mul(20).div(100) ){\n       crowState = 1;\n    \n    } else if (havedCrowdCoin < totalCrowdCoin.mul(30).div(100) ){\n       crowState = 2;\n\n    } else if (havedCrowdCoin < totalCrowdCoin.mul(40).div(100) ){\n       crowState = 3;\n\n    } else if (havedCrowdCoin < totalCrowdCoin.mul(50).div(100) ){\n       crowState = 4;\n    }\n      \n    if (havedCrowdCoin >= totalCrowdCoin) {\n       finishCrowdCoin = true;\n  }\n }\n\nfunction calculateCrowdAmount (uint _price) internal view returns (uint _crow) {\n        \n    if (crowState == 0) {\n      return _price.mul(50000);\n    }\n    \n     else if (crowState == 1) {\n      return _price.mul(30000);\n    \n    } else if (crowState == 2) {\n      return  _price.mul(20000);\n\n    } else if (crowState == 3) {\n     return  _price.mul(15000);\n\n    } else if (crowState == 4) {\n     return  _price.mul(10000);\n    }\n\n    return 0;\n  }\n\n}\n\n/**\n * Define interface for releasing the token transfer after a successful crowdsale.\n */\ncontract ReleasableToken is ERC20, Ownable {\n\n  /* The finalizer contract that allows unlift the transfer limits on this token */\n  address public releaseAgent;\n\n  /** A TTG contract can release us to the wild if ICO success. If false we are are in transfer lock up period.*/\n  bool public released = false;\n\n  uint private maxTransferForDev  = 40000000*10**18;\n  uint private maxTransferFoFounds= 20000000*10**18;\n  uint private maxTransfer = 0;//other user is not limited.\n\n  /** Map of agents that are allowed to transfer tokens regardless of the lock down period. These are crowdsale contracts and possible the team multisig itself. */\n  mapping (address => bool) public transferAgents;\n\n  /**\n   * Limit token transfer until the crowdsale is over.\n   *\n   */\n  modifier canTransfer(address _sender, uint _value) {\n\n    //if owner can Transfer all the time\n    if(_sender != owner){\n      \n      if(isDeveloper()){\n        require(_value < maxTransferForDev);\n\n      }else if(isFounder()){\n        require(_value < maxTransferFoFounds);\n\n      }else if(maxTransfer != 0){\n        require(_value < maxTransfer);\n      }\n\n      if(!released) {\n          require(transferAgents[_sender]);\n      }\n     }\n    _;\n  }\n\n\n function setMaxTranferLimit(uint dev, uint found, uint other) onlyOwner  public {\n\n      require(dev < totalSupply);\n      require(found < totalSupply);\n      require(other < totalSupply);\n\n      maxTransferForDev = dev;\n      maxTransferFoFounds = found;\n      maxTransfer = other;\n  }\n\n\n  /**\n   * Set the contract that can call release and make the token transferable.\n   *\n   * Design choice. Allow reset the release agent to fix fat finger mistakes.\n   */\n  function setReleaseAgent(address addr) onlyOwner inReleaseState(false) public {\n\n    // We don't do interface check here as we might want to a normal wallet address to act as a release agent\n    releaseAgent = addr;\n  }\n\n  /**\n   * Owner can allow a particular address (a crowdsale contract) to transfer tokens despite the lock up period.\n   */\n  function setTransferAgent(address addr, bool state) onlyOwner inReleaseState(false) public {\n    transferAgents[addr] = state;\n  }\n\n  /**\n   * One way function to release the tokens to the wild.\n   *\n   * Can be called only from the release agent that is the final ICO contract. It is only called if the crowdsale has been success (first milestone reached).\n   */\n  function releaseTokenTransfer() public onlyReleaseAgent {\n    released = true;\n  }\n\n  /** The function can be called only before or after the tokens have been releasesd */\n  modifier inReleaseState(bool releaseState) {\n    require(releaseState == released);\n    _;\n  }\n\n  /** The function can be called only by a whitelisted release agent. */\n  modifier onlyReleaseAgent() {\n    require(msg.sender == releaseAgent);\n    _;\n  }\n\n  function transfer(address _to, uint _value) public canTransfer(msg.sender,_value) returns (bool success)  {\n    // Call StandardToken.transfer()\n   return super.transfer(_to, _value);\n  }\n\n  function transferFrom(address _from, address _to, uint _value) public canTransfer(_from,_value) returns (bool success)  {\n    // Call StandardToken.transferForm()\n    return super.transferFrom(_from, _to, _value);\n  }\n\n}\n\ncontract RecycleToken is StandardToken, Ownable {\n\n  using SafeMathLib for uint;\n\n  /**\n   * recycle user token to owner account\n   * \n   */\n  function recycle(address from, uint amount) onlyAdmins public {\n  \n    require(from != address(0));\n    require(balances[from] >=  amount);\n\n    balances[owner] = balances[owner].add(amount);\n    balances[from]  = balances[from].sub(amount);\n\n    // This will make the mint transaction apper in EtherScan.io\n    // We can remove this after there is a standardized minting event\n    emit Transfer(from, owner, amount);\n  }\n\n}\n\n\n/**\n * A token that can increase its supply by another contract.\n *\n * This allows uncapped crowdsale by dynamically increasing the supply when money pours in.\n * Only mint agents, contracts whitelisted by owner, can mint new tokens.\n *\n */\ncontract MintableToken is StandardToken, Ownable {\n\n  using SafeMathLib for uint;\n\n  bool public mintingFinished = false;\n\n  /** List of agents that are allowed to create new tokens */\n  mapping (address => bool) public mintAgents;\n\n  event MintingAgentChanged(address addr, bool state  );\n\n  /**\n   * Create new tokens and allocate them to an address..\n   *\n   * Only callably by a crowdsale contract (mint agent). \n   */\n  function mint(address receiver, uint amount) onlyMintAgent canMint public {\n\n    //totalsupply is not changed, send amount TTG to receiver from owner account.\n    balances[owner] = balances[owner].sub(amount);\n    balances[receiver] = balances[receiver].plus(amount);\n    \n    // This will make the mint transaction apper in EtherScan.io\n    // We can remove this after there is a standardized minting event\n    emit Transfer(0, receiver, amount);\n  }\n\n  /**\n   * Owner can allow a crowdsale contract to mint new tokens.\n   */\n  function setMintAgent(address addr, bool state) onlyOwner canMint public {\n    mintAgents[addr] = state;\n    emit MintingAgentChanged(addr, state);\n  }\n\n  modifier onlyMintAgent() {\n    // Only crowdsale contracts are allowed to mint new tokens\n    require(mintAgents[msg.sender]);\n    _;\n  }\n\n  function enableMint() onlyOwner public {\n    mintingFinished = false;\n  }\n\n  /** Make sure we are not done yet. */\n  modifier canMint() {\n    require(!mintingFinished);\n    _;\n  }\n}\n\n\n\n/**\n * A crowdsaled token.\n *\n * An ERC-20 token designed specifically for crowdsales with investor protection and further development path.\n *\n * - The token transfer() is disabled until the crowdsale is over\n * - The token contract gives an opt-in upgrade path to a new contract\n * - The same token can be part of several crowdsales through approve() mechanism\n * - The token can be capped (supply set in the constructor) or uncapped (crowdsale contract can mint new tokens)\n *\n */\ncontract TTGCoin is ReleasableToken, MintableToken , DistributeToken, RecycleToken{\n\n  /** Name and symbol were updated. */\n  event UpdatedTokenInformation(string newName, string newSymbol);\n\n  string public name;\n\n  string public symbol;\n\n  uint public decimals;\n\n  /**\n   * Construct the token.\n   *\n   * This token must be created through a team multisig wallet, so that it is owned by that wallet.\n   *\n   */\n  function TTGCoin() public {\n    // Create any address, can be transferred\n    // to team multisig via changeOwner(),\n    owner = msg.sender;\n\n    addAdmin(owner);\n\n    name  = \"TotalGame Coin\";\n    symbol = \"TGC\";\n    totalSupply = 2000000000*10**18;\n    decimals = 18;\n\n    // Create initially all balance on the team multisig\n    balances[msg.sender] = totalSupply;\n\n    //Mint feature is not allow  now\n    mintingFinished = true;\n\n    //Set the distribute totaltoken strategy\n    totalAirDrop = totalSupply.mul(10).div(100);\n    totalCrowdCoin = totalSupply.mul(50).div(100);\n    totalDevCoin = totalSupply.mul(20).div(100);\n    totalFoundCoin = totalSupply.mul(20).div(100);\n\n    emit Minted(owner, totalSupply);\n  }\n\n\n  /**\n   * When token is released to be transferable, enforce no new tokens can be created.\n   */\n  function releaseTokenTransfer() public onlyReleaseAgent {\n    super.releaseTokenTransfer();\n  }\n\n  /**\n   * Owner can update token information here.\n   *\n   * It is often useful to conceal the actual token association, until\n   * the token operations, like central issuance or reissuance have been completed.\n   *\n   * This function allows the token owner to rename the token after the operations\n   * have been completed and then point the audience to use the token contract.\n   */\n  function setTokenInformation(string _name, string _symbol) public onlyOwner {\n    name = _name;\n    symbol = _symbol;\n\n    emit UpdatedTokenInformation(name, symbol);\n  }\n\n  function getTotalSupply() public view returns (uint) {\n    return totalSupply;\n  }\n\n  function tokenName() public view returns (string _name) {\n    return name;\n  }\n}",
  "sourcePath": "/home/ec2-user/petshop/contracts/TTGCoin.sol",
  "compiler": {
    "name": "solc",
    "version": "0.4.24+commit.e67f0147.Emscripten.clang"
  },
  "schemaVersion": "2.0.0",
  "updatedAt": "2018-06-04T07:28:23.365Z"
}